{
  "contractName": "SupplyChain",
  "abi": [
    {
      "constant": false,
      "inputs": [
        {
          "name": "account",
          "type": "address"
        }
      ],
      "name": "addConsumer",
      "outputs": [],
      "payable": false,
      "stateMutability": "nonpayable",
      "type": "function",
      "signature": "0x112940f9"
    },
    {
      "constant": true,
      "inputs": [
        {
          "name": "account",
          "type": "address"
        }
      ],
      "name": "isRetailer",
      "outputs": [
        {
          "name": "",
          "type": "bool"
        }
      ],
      "payable": false,
      "stateMutability": "view",
      "type": "function",
      "signature": "0x5da09b88"
    },
    {
      "constant": false,
      "inputs": [],
      "name": "renounceConsumer",
      "outputs": [],
      "payable": false,
      "stateMutability": "nonpayable",
      "type": "function",
      "signature": "0x61e6982d"
    },
    {
      "constant": false,
      "inputs": [],
      "name": "renounceDistributor",
      "outputs": [],
      "payable": false,
      "stateMutability": "nonpayable",
      "type": "function",
      "signature": "0x644241db"
    },
    {
      "constant": false,
      "inputs": [],
      "name": "renounceOwnership",
      "outputs": [],
      "payable": false,
      "stateMutability": "nonpayable",
      "type": "function",
      "signature": "0x715018a6"
    },
    {
      "constant": false,
      "inputs": [
        {
          "name": "account",
          "type": "address"
        }
      ],
      "name": "addDistributor",
      "outputs": [],
      "payable": false,
      "stateMutability": "nonpayable",
      "type": "function",
      "signature": "0x7250e224"
    },
    {
      "constant": false,
      "inputs": [
        {
          "name": "account",
          "type": "address"
        }
      ],
      "name": "addFarmer",
      "outputs": [],
      "payable": false,
      "stateMutability": "nonpayable",
      "type": "function",
      "signature": "0x80c3f96d"
    },
    {
      "constant": false,
      "inputs": [],
      "name": "renounceFarmer",
      "outputs": [],
      "payable": false,
      "stateMutability": "nonpayable",
      "type": "function",
      "signature": "0x80fc0ce4"
    },
    {
      "constant": true,
      "inputs": [
        {
          "name": "account",
          "type": "address"
        }
      ],
      "name": "isConsumer",
      "outputs": [
        {
          "name": "",
          "type": "bool"
        }
      ],
      "payable": false,
      "stateMutability": "view",
      "type": "function",
      "signature": "0x834ff739"
    },
    {
      "constant": true,
      "inputs": [],
      "name": "owner",
      "outputs": [
        {
          "name": "",
          "type": "address"
        }
      ],
      "payable": false,
      "stateMutability": "view",
      "type": "function",
      "signature": "0x8da5cb5b"
    },
    {
      "constant": false,
      "inputs": [
        {
          "name": "account",
          "type": "address"
        }
      ],
      "name": "addRetailer",
      "outputs": [],
      "payable": false,
      "stateMutability": "nonpayable",
      "type": "function",
      "signature": "0x8ec4f505"
    },
    {
      "constant": true,
      "inputs": [
        {
          "name": "account",
          "type": "address"
        }
      ],
      "name": "isDistributor",
      "outputs": [
        {
          "name": "",
          "type": "bool"
        }
      ],
      "payable": false,
      "stateMutability": "view",
      "type": "function",
      "signature": "0x8f0c86fa"
    },
    {
      "constant": true,
      "inputs": [],
      "name": "isOwner",
      "outputs": [
        {
          "name": "",
          "type": "bool"
        }
      ],
      "payable": false,
      "stateMutability": "view",
      "type": "function",
      "signature": "0x8f32d59b"
    },
    {
      "constant": true,
      "inputs": [
        {
          "name": "account",
          "type": "address"
        }
      ],
      "name": "isFarmer",
      "outputs": [
        {
          "name": "",
          "type": "bool"
        }
      ],
      "payable": false,
      "stateMutability": "view",
      "type": "function",
      "signature": "0xb9429069"
    },
    {
      "constant": false,
      "inputs": [],
      "name": "renounceRetailer",
      "outputs": [],
      "payable": false,
      "stateMutability": "nonpayable",
      "type": "function",
      "signature": "0xdb0e6a2f"
    },
    {
      "constant": false,
      "inputs": [
        {
          "name": "newOwner",
          "type": "address"
        }
      ],
      "name": "transferOwnership",
      "outputs": [],
      "payable": false,
      "stateMutability": "nonpayable",
      "type": "function",
      "signature": "0xf2fde38b"
    },
    {
      "inputs": [],
      "payable": false,
      "stateMutability": "nonpayable",
      "type": "constructor",
      "signature": "constructor"
    },
    {
      "anonymous": false,
      "inputs": [
        {
          "indexed": false,
          "name": "upc",
          "type": "uint256"
        }
      ],
      "name": "Harvested",
      "type": "event",
      "signature": "0x8e55ccfc9778ff8eba1646d765cf1982537ce0f9257054a17b48aad745250183"
    },
    {
      "anonymous": false,
      "inputs": [
        {
          "indexed": false,
          "name": "upc",
          "type": "uint256"
        }
      ],
      "name": "Processed",
      "type": "event",
      "signature": "0x5afe3b1bf87069693c075da5c22a98d63d1aef98a30dbbe538d0781a98b77ee5"
    },
    {
      "anonymous": false,
      "inputs": [
        {
          "indexed": false,
          "name": "upc",
          "type": "uint256"
        }
      ],
      "name": "Packed",
      "type": "event",
      "signature": "0x9b3b66e2380b690bae22c73ef1428fb0c91e72fe14a4b6defa13035214187aff"
    },
    {
      "anonymous": false,
      "inputs": [
        {
          "indexed": false,
          "name": "upc",
          "type": "uint256"
        }
      ],
      "name": "ForSale",
      "type": "event",
      "signature": "0xa96ae0fc3224ebd79eebfe54bd130cc9cb94416cddd1f2386115e00b72532468"
    },
    {
      "anonymous": false,
      "inputs": [
        {
          "indexed": false,
          "name": "upc",
          "type": "uint256"
        }
      ],
      "name": "Sold",
      "type": "event",
      "signature": "0x92f64ca637d023f354075a4be751b169c1a8a9ccb6d33cdd0cb3520543995727"
    },
    {
      "anonymous": false,
      "inputs": [
        {
          "indexed": false,
          "name": "upc",
          "type": "uint256"
        }
      ],
      "name": "Shipped",
      "type": "event",
      "signature": "0xf00b9a5725b80c54016f42114f6ed7792d22eecb116011c4afac29c57bef6c95"
    },
    {
      "anonymous": false,
      "inputs": [
        {
          "indexed": false,
          "name": "upc",
          "type": "uint256"
        }
      ],
      "name": "Received",
      "type": "event",
      "signature": "0xa8142743f8f70a4c26f3691cf4ed59718381fb2f18070ec52be1f1022d855557"
    },
    {
      "anonymous": false,
      "inputs": [
        {
          "indexed": false,
          "name": "upc",
          "type": "uint256"
        }
      ],
      "name": "Purchased",
      "type": "event",
      "signature": "0x653d56639fee6b566a5c804764e9689de38645f0b733df89a36a1b7b42173dd8"
    },
    {
      "anonymous": false,
      "inputs": [
        {
          "indexed": true,
          "name": "account",
          "type": "address"
        }
      ],
      "name": "ConsumerAdded",
      "type": "event",
      "signature": "0x28b26e7a3d20aedbc5f8f2ebf7da671c0491723a2b78f47a097b0e46dee07142"
    },
    {
      "anonymous": false,
      "inputs": [
        {
          "indexed": true,
          "name": "account",
          "type": "address"
        }
      ],
      "name": "ConsumerRemoved",
      "type": "event",
      "signature": "0xe3f5ed5f263f1f01764a96edfc7d025f511ec5f7d180e8816908b78bcf74f098"
    },
    {
      "anonymous": false,
      "inputs": [
        {
          "indexed": true,
          "name": "account",
          "type": "address"
        }
      ],
      "name": "RetailerAdded",
      "type": "event",
      "signature": "0x71ae26cad02663e3d92efd6ec56031a80d74a20c0ab4183faa8bf262261c9baa"
    },
    {
      "anonymous": false,
      "inputs": [
        {
          "indexed": true,
          "name": "account",
          "type": "address"
        }
      ],
      "name": "RetailerRemoved",
      "type": "event",
      "signature": "0xdb7176e79cffef81cb01767dd0447a0b24bb72ca9778d4b245581086b2a7e6db"
    },
    {
      "anonymous": false,
      "inputs": [
        {
          "indexed": true,
          "name": "account",
          "type": "address"
        }
      ],
      "name": "DistributorAdded",
      "type": "event",
      "signature": "0xddbf200aa634dc3fb81cfd68583dd1040d1c751d335e1d86b631bde3e977fea8"
    },
    {
      "anonymous": false,
      "inputs": [
        {
          "indexed": true,
          "name": "account",
          "type": "address"
        }
      ],
      "name": "DistributorRemoved",
      "type": "event",
      "signature": "0x126174f6cf49c81cdb4a9214c6b8f037bef55b4ec31e4fc776cea2a1c8a88d59"
    },
    {
      "anonymous": false,
      "inputs": [
        {
          "indexed": true,
          "name": "account",
          "type": "address"
        }
      ],
      "name": "FarmerAdded",
      "type": "event",
      "signature": "0x2e0ded4123377a3c2bc9a26f1717655a129e2f20752924d42e730ec89c83dbd0"
    },
    {
      "anonymous": false,
      "inputs": [
        {
          "indexed": true,
          "name": "account",
          "type": "address"
        }
      ],
      "name": "FarmerRemoved",
      "type": "event",
      "signature": "0xa5e0f060af304ab17dd418c7927e3da3ae7868189bf387aee09ab179ccc572f2"
    },
    {
      "anonymous": false,
      "inputs": [
        {
          "indexed": true,
          "name": "oldOwner",
          "type": "address"
        },
        {
          "indexed": true,
          "name": "newOwner",
          "type": "address"
        }
      ],
      "name": "TransferOwnership",
      "type": "event",
      "signature": "0x5c486528ec3e3f0ea91181cff8116f02bfa350e03b8b6f12e00765adbb5af85c"
    },
    {
      "constant": false,
      "inputs": [
        {
          "name": "_upc",
          "type": "uint256"
        },
        {
          "name": "_originFarmerID",
          "type": "address"
        },
        {
          "name": "_originFarmName",
          "type": "string"
        },
        {
          "name": "_originFarmInformation",
          "type": "string"
        },
        {
          "name": "_originFarmLatitude",
          "type": "string"
        },
        {
          "name": "_originFarmLongitude",
          "type": "string"
        },
        {
          "name": "_productNotes",
          "type": "string"
        }
      ],
      "name": "harvestItem",
      "outputs": [],
      "payable": false,
      "stateMutability": "nonpayable",
      "type": "function",
      "signature": "0xbdd8a6a8"
    },
    {
      "constant": false,
      "inputs": [
        {
          "name": "_upc",
          "type": "uint256"
        }
      ],
      "name": "processItem",
      "outputs": [],
      "payable": false,
      "stateMutability": "nonpayable",
      "type": "function",
      "signature": "0x49dae766"
    },
    {
      "constant": false,
      "inputs": [
        {
          "name": "_upc",
          "type": "uint256"
        }
      ],
      "name": "packItem",
      "outputs": [],
      "payable": false,
      "stateMutability": "nonpayable",
      "type": "function",
      "signature": "0xf30fc480"
    },
    {
      "constant": false,
      "inputs": [
        {
          "name": "_upc",
          "type": "uint256"
        },
        {
          "name": "_price",
          "type": "uint256"
        }
      ],
      "name": "sellItem",
      "outputs": [],
      "payable": false,
      "stateMutability": "nonpayable",
      "type": "function",
      "signature": "0x2d923561"
    },
    {
      "constant": false,
      "inputs": [
        {
          "name": "_upc",
          "type": "uint256"
        }
      ],
      "name": "buyItem",
      "outputs": [],
      "payable": true,
      "stateMutability": "payable",
      "type": "function",
      "signature": "0xe7fb74c7"
    },
    {
      "constant": false,
      "inputs": [
        {
          "name": "_upc",
          "type": "uint256"
        }
      ],
      "name": "shipItem",
      "outputs": [],
      "payable": false,
      "stateMutability": "nonpayable",
      "type": "function",
      "signature": "0xf61c899a"
    },
    {
      "constant": false,
      "inputs": [
        {
          "name": "_upc",
          "type": "uint256"
        }
      ],
      "name": "receiveItem",
      "outputs": [],
      "payable": false,
      "stateMutability": "nonpayable",
      "type": "function",
      "signature": "0xa26be999"
    },
    {
      "constant": false,
      "inputs": [
        {
          "name": "_upc",
          "type": "uint256"
        }
      ],
      "name": "purchaseItem",
      "outputs": [],
      "payable": false,
      "stateMutability": "nonpayable",
      "type": "function",
      "signature": "0xd38ea5bf"
    },
    {
      "constant": true,
      "inputs": [
        {
          "name": "_upc",
          "type": "uint256"
        }
      ],
      "name": "fetchItemBufferOne",
      "outputs": [
        {
          "name": "itemSKU",
          "type": "uint256"
        },
        {
          "name": "itemUPC",
          "type": "uint256"
        },
        {
          "name": "ownerID",
          "type": "address"
        },
        {
          "name": "originFarmerID",
          "type": "address"
        },
        {
          "name": "originFarmName",
          "type": "string"
        },
        {
          "name": "originFarmInformation",
          "type": "string"
        },
        {
          "name": "originFarmLatitude",
          "type": "string"
        },
        {
          "name": "originFarmLongitude",
          "type": "string"
        }
      ],
      "payable": false,
      "stateMutability": "view",
      "type": "function",
      "signature": "0x77c45913"
    },
    {
      "constant": true,
      "inputs": [
        {
          "name": "_upc",
          "type": "uint256"
        }
      ],
      "name": "fetchItemBufferTwo",
      "outputs": [
        {
          "name": "itemSKU",
          "type": "uint256"
        },
        {
          "name": "itemUPC",
          "type": "uint256"
        },
        {
          "name": "productID",
          "type": "uint256"
        },
        {
          "name": "productNotes",
          "type": "string"
        },
        {
          "name": "productPrice",
          "type": "uint256"
        },
        {
          "name": "itemState",
          "type": "uint256"
        },
        {
          "name": "distributorID",
          "type": "address"
        },
        {
          "name": "retailerID",
          "type": "address"
        },
        {
          "name": "consumerID",
          "type": "address"
        }
      ],
      "payable": false,
      "stateMutability": "view",
      "type": "function",
      "signature": "0x66225ff9"
    }
  ],
  "bytecode": "0x60806040523480156200001157600080fd5b5060008054600160a060020a0319163317808255604051600160a060020a039190911691907f5c486528ec3e3f0ea91181cff8116f02bfa350e03b8b6f12e00765adbb5af85c908290a36200006f33640100000000620000bb810204565b62000083336401000000006200010d810204565b62000097336401000000006200015f810204565b620000ab33640100000000620001b1810204565b60016006819055600555620003bc565b620000d66001826401000000006200238d6200020382021704565b604051600160a060020a038216907f2e0ded4123377a3c2bc9a26f1717655a129e2f20752924d42e730ec89c83dbd090600090a250565b620001286002826401000000006200238d6200020382021704565b604051600160a060020a038216907fddbf200aa634dc3fb81cfd68583dd1040d1c751d335e1d86b631bde3e977fea890600090a250565b6200017a6003826401000000006200238d6200020382021704565b604051600160a060020a038216907f71ae26cad02663e3d92efd6ec56031a80d74a20c0ab4183faa8bf262261c9baa90600090a250565b620001cc6004826401000000006200238d6200020382021704565b604051600160a060020a038216907f28b26e7a3d20aedbc5f8f2ebf7da671c0491723a2b78f47a097b0e46dee0714290600090a250565b600160a060020a03811615156200027b57604080517f08c379a000000000000000000000000000000000000000000000000000000000815260206004820152600e60248201527f766572696679206163636f756e74000000000000000000000000000000000000604482015290519081900360640190fd5b62000290828264010000000062000322810204565b15620002fd57604080517f08c379a000000000000000000000000000000000000000000000000000000000815260206004820152601b60248201527f766572696679206163636f756e74206861732074686520726f6c650000000000604482015290519081900360640190fd5b600160a060020a0316600090815260209190915260409020805460ff19166001179055565b6000600160a060020a03821615156200039c57604080517f08c379a000000000000000000000000000000000000000000000000000000000815260206004820152601760248201527f4163636f756e74206973206e6f74207665726966696564000000000000000000604482015290519081900360640190fd5b50600160a060020a03166000908152602091909152604090205460ff1690565b6126eb80620003cc6000396000f3fe6080604052600436106101535763ffffffff7c0100000000000000000000000000000000000000000000000000000000600035041663112940f981146101585780632d9235611461018d57806349dae766146101bd5780635da09b88146101e757806361e6982d1461022e578063644241db1461024357806366225ff914610258578063715018a6146103685780637250e2241461037d57806377c45913146103b057806380c3f96d146105c457806380fc0ce4146105f7578063834ff7391461060c5780638da5cb5b1461063f5780638ec4f505146106705780638f0c86fa146106a35780638f32d59b146106d6578063a26be999146106eb578063b942906914610715578063bdd8a6a814610748578063d38ea5bf14610a2c578063db0e6a2f14610a56578063e7fb74c714610a6b578063f2fde38b14610a88578063f30fc48014610abb578063f61c899a14610ae5575b600080fd5b34801561016457600080fd5b5061018b6004803603602081101561017b57600080fd5b5035600160a060020a0316610b0f565b005b34801561019957600080fd5b5061018b600480360360408110156101b057600080fd5b5080359060200135610b7a565b3480156101c957600080fd5b5061018b600480360360208110156101e057600080fd5b5035610cff565b3480156101f357600080fd5b5061021a6004803603602081101561020a57600080fd5b5035600160a060020a0316610e7b565b604080519115158252519081900360200190f35b34801561023a57600080fd5b5061018b610e94565b34801561024f57600080fd5b5061018b610e9f565b34801561026457600080fd5b506102826004803603602081101561027b57600080fd5b5035610ea8565b604051808a81526020018981526020018881526020018060200187815260200186815260200185600160a060020a0316600160a060020a0316815260200184600160a060020a0316600160a060020a0316815260200183600160a060020a0316600160a060020a03168152602001828103825288818151815260200191508051906020019080838360005b8381101561032557818101518382015260200161030d565b50505050905090810190601f1680156103525780820380516001836020036101000a031916815260200191505b509a505050505050505050505060405180910390f35b34801561037457600080fd5b5061018b610fdb565b34801561038957600080fd5b5061018b600480360360208110156103a057600080fd5b5035600160a060020a0316611083565b3480156103bc57600080fd5b506103da600480360360208110156103d357600080fd5b50356110eb565b6040518089815260200188815260200187600160a060020a0316600160a060020a0316815260200186600160a060020a0316600160a060020a0316815260200180602001806020018060200180602001858103855289818151815260200191508051906020019080838360005b8381101561045f578181015183820152602001610447565b50505050905090810190601f16801561048c5780820380516001836020036101000a031916815260200191505b5085810384528851815288516020918201918a019080838360005b838110156104bf5781810151838201526020016104a7565b50505050905090810190601f1680156104ec5780820380516001836020036101000a031916815260200191505b50858103835287518152875160209182019189019080838360005b8381101561051f578181015183820152602001610507565b50505050905090810190601f16801561054c5780820380516001836020036101000a031916815260200191505b50858103825286518152865160209182019188019080838360005b8381101561057f578181015183820152602001610567565b50505050905090810190601f1680156105ac5780820380516001836020036101000a031916815260200191505b509c5050505050505050505050505060405180910390f35b3480156105d057600080fd5b5061018b600480360360208110156105e757600080fd5b5035600160a060020a031661139f565b34801561060357600080fd5b5061018b6113f5565b34801561061857600080fd5b5061021a6004803603602081101561062f57600080fd5b5035600160a060020a03166113fe565b34801561064b57600080fd5b50610654611411565b60408051600160a060020a039092168252519081900360200190f35b34801561067c57600080fd5b5061018b6004803603602081101561069357600080fd5b5035600160a060020a0316611421565b3480156106af57600080fd5b5061021a600480360360208110156106c657600080fd5b5035600160a060020a0316611489565b3480156106e257600080fd5b5061021a61149c565b3480156106f757600080fd5b5061018b6004803603602081101561070e57600080fd5b50356114ad565b34801561072157600080fd5b5061021a6004803603602081101561073857600080fd5b5035600160a060020a0316611602565b34801561075457600080fd5b5061018b600480360360e081101561076b57600080fd5b813591600160a060020a036020820135169181019060608101604082013564010000000081111561079b57600080fd5b8201836020820111156107ad57600080fd5b803590602001918460018302840111640100000000831117156107cf57600080fd5b91908080601f016020809104026020016040519081016040528093929190818152602001838380828437600092019190915250929594936020810193503591505064010000000081111561082257600080fd5b82018360208201111561083457600080fd5b8035906020019184600183028401116401000000008311171561085657600080fd5b91908080601f01602080910402602001604051908101604052809392919081815260200183838082843760009201919091525092959493602081019350359150506401000000008111156108a957600080fd5b8201836020820111156108bb57600080fd5b803590602001918460018302840111640100000000831117156108dd57600080fd5b91908080601f016020809104026020016040519081016040528093929190818152602001838380828437600092019190915250929594936020810193503591505064010000000081111561093057600080fd5b82018360208201111561094257600080fd5b8035906020019184600183028401116401000000008311171561096457600080fd5b91908080601f01602080910402602001604051908101604052809392919081815260200183838082843760009201919091525092959493602081019350359150506401000000008111156109b757600080fd5b8201836020820111156109c957600080fd5b803590602001918460018302840111640100000000831117156109eb57600080fd5b91908080601f016020809104026020016040519081016040528093929190818152602001838380828437600092019190915250929550611615945050505050565b348015610a3857600080fd5b5061018b60048036036020811015610a4f57600080fd5b50356118ca565b348015610a6257600080fd5b5061018b611a22565b61018b60048036036020811015610a8157600080fd5b5035611a2b565b348015610a9457600080fd5b5061018b60048036036020811015610aab57600080fd5b5035600160a060020a0316611c98565b348015610ac757600080fd5b5061018b60048036036020811015610ade57600080fd5b5035611cff565b348015610af157600080fd5b5061018b60048036036020811015610b0857600080fd5b5035611e7c565b610b18336113fe565b1515610b6e576040805160e560020a62461bcd02815260206004820152601960248201527f43616c6c6572206973206e6f74206120636f6e73756d65722e00000000000000604482015290519081900360640190fd5b610b7781612010565b50565b8160026000828152600760208190526040909120600b015460ff1690811115610b9f57fe5b14610bf4576040805160e560020a62461bcd02815260206004820152600d60248201527f6973206e6f74205061636b656400000000000000000000000000000000000000604482015290519081900360640190fd5b600083815260076020526040902060030154600160a060020a0316338114610c54576040805160e560020a62461bcd02815260206004820152601360248201526000805160206126a0833981519152604482015290519081900360640190fd5b610c5d33611602565b1515610ca1576040805160e560020a62461bcd0281526020600482015260166024820152600080516020612680833981519152604482015290519081900360640190fd5b600084815260076020908152604091829020600a8101869055600b01805460ff19166003179055815186815291517fa96ae0fc3224ebd79eebfe54bd130cc9cb94416cddd1f2386115e00b725324689281900390910190a150505050565b80600080828152600760208190526040909120600b015460ff1690811115610d2357fe5b14610d78576040805160e560020a62461bcd02815260206004820152601060248201527f6973206e6f742048617276657374656400000000000000000000000000000000604482015290519081900360640190fd5b600082815260076020526040902060030154600160a060020a0316338114610dd8576040805160e560020a62461bcd02815260206004820152601360248201526000805160206126a0833981519152604482015290519081900360640190fd5b610de133611602565b1515610e25576040805160e560020a62461bcd0281526020600482015260166024820152600080516020612680833981519152604482015290519081900360640190fd5b600083815260076020908152604091829020600b01805460ff19166001179055815185815291517f5afe3b1bf87069693c075da5c22a98d63d1aef98a30dbbe538d0781a98b77ee59281900390910190a1505050565b6000610e8e60038363ffffffff61205816565b92915050565b610e9d336120da565b565b610e9d33612122565b600081815260076020908152604080832080546001808301546008840154600990940180548651600294821615610100026000190190911693909304601f81018890048802840188019096528583529296909593946060949193849384938493849391830182828015610f5c5780601f10610f3157610100808354040283529160200191610f5c565b820191906000526020600020905b815481529060010190602001808311610f3f57829003601f168201915b50505060008d8152600760208190526040909120600a810154600b90910154949a50985060ff909316928311159150610f93905057fe5b60008b8152600760205260409020600b810154600c820154600d90920154929650600160a060020a036101009091048116955090811693501690509193959799909294969850565b610fe361149c565b1515611039576040805160e560020a62461bcd02815260206004820152600960248201527f6e6f74206f776e65720000000000000000000000000000000000000000000000604482015290519081900360640190fd5b60008054604051600160a060020a03909116907f5c486528ec3e3f0ea91181cff8116f02bfa350e03b8b6f12e00765adbb5af85c908390a360008054600160a060020a0319169055565b61108c33611489565b15156110e2576040805160e560020a62461bcd02815260206004820152601c60248201527f43616c6c6572206973206e6f742061206469737472696275746f722e00000000604482015290519081900360640190fd5b610b778161216a565b600081815260076020908152604091829020805460018083015460028085015460038601546004909601805489516101009682161596909602600019011692909204601f810188900488028501880190985287845293969195600160a060020a039485169594909416936060938493849384939091908301828280156111b25780601f10611187576101008083540402835291602001916111b2565b820191906000526020600020905b81548152906001019060200180831161119557829003601f168201915b50505060008c8152600760209081526040918290206005018054835160026001831615610100026000190190921691909104601f810184900484028201840190945283815295995093509091508301828280156112505780601f1061122557610100808354040283529160200191611250565b820191906000526020600020905b81548152906001019060200180831161123357829003601f168201915b50505060008c8152600760209081526040918290206006018054835160026001831615610100026000190190921691909104601f810184900484028201840190945283815295985093509091508301828280156112ee5780601f106112c3576101008083540402835291602001916112ee565b820191906000526020600020905b8154815290600101906020018083116112d157829003601f168201915b50505060008c8152600760208181526040928390209091018054835160026001831615610100026000190190921691909104601f8101849004840282018401909452838152959750935090915083018282801561138c5780601f106113615761010080835404028352916020019161138c565b820191906000526020600020905b81548152906001019060200180831161136f57829003601f168201915b5093945050505050919395975091939597565b6113a833611602565b15156113ec576040805160e560020a62461bcd0281526020600482015260166024820152600080516020612680833981519152604482015290519081900360640190fd5b610b77816121b2565b610e9d336121fa565b6000610e8e60048363ffffffff61205816565b600054600160a060020a03165b90565b61142a33610e7b565b1515611480576040805160e560020a62461bcd02815260206004820152601960248201527f43616c6c6572206973206e6f7420612072657461696c65722e00000000000000604482015290519081900360640190fd5b610b7781612242565b6000610e8e60028363ffffffff61205816565b600054600160a060020a0316331490565b8060056000828152600760208190526040909120600b015460ff16908111156114d257fe5b14611527576040805160e560020a62461bcd02815260206004820152600e60248201527f6973206e6f742053686970706564000000000000000000000000000000000000604482015290519081900360640190fd5b61153033610e7b565b1515611586576040805160e560020a62461bcd02815260206004820152601960248201527f43616c6c6572206973206e6f7420612072657461696c65722e00000000000000604482015290519081900360640190fd5b600082815260076020908152604091829020600281018054600160a060020a031990811633908117909255600c830180549091169091179055600b01805460ff19166006179055815184815291517fa8142743f8f70a4c26f3691cf4ed59718381fb2f18070ec52be1f1022d8555579281900390910190a15050565b6000610e8e60018363ffffffff61205816565b61161e33611602565b1515611662576040805160e560020a62461bcd0281526020600482015260166024820152600080516020612680833981519152604482015290519081900360640190fd5b61166a612553565b6101e060405190810160405280600654815260200189815260200188600160a060020a0316815260200188600160a060020a031681526020018781526020018681526020018581526020018481526020018960065401815260200183815260200160008152602001600060078111156116df57fe5b8152600060208083018290526040808401839052600160a060020a038c81166060958601528d845260078352928190208551815585830151600182015590850151600282018054918516600160a060020a0319928316179055938501516003820180549190941694169390931790915560808301518051939450849361176b92600485019201906125e7565b5060a082015180516117879160058401916020909101906125e7565b5060c082015180516117a39160068401916020909101906125e7565b5060e082015180516117bf9160078401916020909101906125e7565b50610100820151600882015561012082015180516117e79160098401916020909101906125e7565b50610140820151600a820155610160820151600b8201805460ff1916600183600781111561181157fe5b0217905550610180820151600b8201805474ffffffffffffffffffffffffffffffffffffffff001916610100600160a060020a03938416021790556101a0830151600c83018054600160a060020a03199081169284169290921790556101c090930151600d909201805490931691161790556006805460010190556040805189815290517f8e55ccfc9778ff8eba1646d765cf1982537ce0f9257054a17b48aad745250183916020908290030190a15050505050505050565b8060066000828152600760208190526040909120600b015460ff16908111156118ef57fe5b14611944576040805160e560020a62461bcd02815260206004820152600f60248201527f4973206e6f742052656365697665640000000000000000000000000000000000604482015290519081900360640190fd5b61194d336113fe565b15156119a3576040805160e560020a62461bcd02815260206004820152601960248201527f43616c6c6572206973206e6f74206120636f6e73756d65722e00000000000000604482015290519081900360640190fd5b600082815260076020819052604090912060028101805433600160a060020a03199182168117909255600d830180549091169091179055600b01805460ff191660018302179055506040805183815290517f653d56639fee6b566a5c804764e9689de38645f0b733df89a36a1b7b42173dd89181900360200190a15050565b610e9d3361228a565b8060036000828152600760208190526040909120600b015460ff1690811115611a5057fe5b14611aa5576040805160e560020a62461bcd02815260206004820152600e60248201527f6973206e6f7420466f7253616c65000000000000000000000000000000000000604482015290519081900360640190fd5b6000828152600760205260409020600a015434811115611b0f576040805160e560020a62461bcd02815260206004820152601d60248201527f5061696420616d6f756e74206973206e6f742073756666696369656e74000000604482015290519081900360640190fd5b82611b1933611489565b1515611b6f576040805160e560020a62461bcd02815260206004820152601c60248201527f43616c6c6572206973206e6f742061206469737472696275746f722e00000000604482015290519081900360640190fd5b600084815260076020526040808220600281018054600160a060020a03191633908117909155600b8201805460ff1961010090930274ffffffffffffffffffffffffffffffffffffffff0019909116179190911660041790556003810154600a909101549151600160a060020a03909116926108fc831502929190818181858888f19350505050158015611c07573d6000803e3d6000fd5b506040805185815290517f92f64ca637d023f354075a4be751b169c1a8a9ccb6d33cdd0cb35205439957279181900360200190a1600081815260076020526040808220600a810154600d90910154915190923484900392600160a060020a03169183156108fc0291849190818181858888f19350505050158015611c8f573d6000803e3d6000fd5b50505050505050565b611ca061149c565b1515611cf6576040805160e560020a62461bcd02815260206004820152600960248201527f6e6f74206f776e65720000000000000000000000000000000000000000000000604482015290519081900360640190fd5b610b77816122d2565b8060016000828152600760208190526040909120600b015460ff1690811115611d2457fe5b14611d79576040805160e560020a62461bcd02815260206004820152601060248201527f4973206e6f742050726f63657373656400000000000000000000000000000000604482015290519081900360640190fd5b600082815260076020526040902060030154600160a060020a0316338114611dd9576040805160e560020a62461bcd02815260206004820152601360248201526000805160206126a0833981519152604482015290519081900360640190fd5b611de233611602565b1515611e26576040805160e560020a62461bcd0281526020600482015260166024820152600080516020612680833981519152604482015290519081900360640190fd5b600083815260076020908152604091829020600b01805460ff19166002179055815185815291517f9b3b66e2380b690bae22c73ef1428fb0c91e72fe14a4b6defa13035214187aff9281900390910190a1505050565b8060046000828152600760208190526040909120600b015460ff1690811115611ea157fe5b14611ef6576040805160e560020a62461bcd02815260206004820152600b60248201527f6973206e6f7420536f6c64000000000000000000000000000000000000000000604482015290519081900360640190fd5b6000828152600760205260409020600b01546101009004600160a060020a0316338114611f5b576040805160e560020a62461bcd02815260206004820152601360248201526000805160206126a0833981519152604482015290519081900360640190fd5b611f6433611489565b1515611fba576040805160e560020a62461bcd02815260206004820152601c60248201527f43616c6c6572206973206e6f742061206469737472696275746f722e00000000604482015290519081900360640190fd5b600083815260076020908152604091829020600b01805460ff19166005179055815185815291517ff00b9a5725b80c54016f42114f6ed7792d22eecb116011c4afac29c57bef6c959281900390910190a1505050565b61202160048263ffffffff61238d16565b604051600160a060020a038216907f28b26e7a3d20aedbc5f8f2ebf7da671c0491723a2b78f47a097b0e46dee0714290600090a250565b6000600160a060020a03821615156120ba576040805160e560020a62461bcd02815260206004820152601760248201527f4163636f756e74206973206e6f74207665726966696564000000000000000000604482015290519081900360640190fd5b50600160a060020a03166000908152602091909152604090205460ff1690565b6120eb60048263ffffffff61247116565b604051600160a060020a038216907fe3f5ed5f263f1f01764a96edfc7d025f511ec5f7d180e8816908b78bcf74f09890600090a250565b61213360028263ffffffff61247116565b604051600160a060020a038216907f126174f6cf49c81cdb4a9214c6b8f037bef55b4ec31e4fc776cea2a1c8a88d5990600090a250565b61217b60028263ffffffff61238d16565b604051600160a060020a038216907fddbf200aa634dc3fb81cfd68583dd1040d1c751d335e1d86b631bde3e977fea890600090a250565b6121c360018263ffffffff61238d16565b604051600160a060020a038216907f2e0ded4123377a3c2bc9a26f1717655a129e2f20752924d42e730ec89c83dbd090600090a250565b61220b60018263ffffffff61247116565b604051600160a060020a038216907fa5e0f060af304ab17dd418c7927e3da3ae7868189bf387aee09ab179ccc572f290600090a250565b61225360038263ffffffff61238d16565b604051600160a060020a038216907f71ae26cad02663e3d92efd6ec56031a80d74a20c0ab4183faa8bf262261c9baa90600090a250565b61229b60038263ffffffff61247116565b604051600160a060020a038216907fdb7176e79cffef81cb01767dd0447a0b24bb72ca9778d4b245581086b2a7e6db90600090a250565b600160a060020a0381161515612332576040805160e560020a62461bcd02815260206004820152601160248201527f6e6f742076616c69642061646472657373000000000000000000000000000000604482015290519081900360640190fd5b60008054604051600160a060020a03808516939216917f5c486528ec3e3f0ea91181cff8116f02bfa350e03b8b6f12e00765adbb5af85c91a360008054600160a060020a031916600160a060020a0392909216919091179055565b600160a060020a03811615156123ed576040805160e560020a62461bcd02815260206004820152600e60248201527f766572696679206163636f756e74000000000000000000000000000000000000604482015290519081900360640190fd5b6123f78282612058565b1561244c576040805160e560020a62461bcd02815260206004820152601b60248201527f766572696679206163636f756e74206861732074686520726f6c650000000000604482015290519081900360640190fd5b600160a060020a0316600090815260209190915260409020805460ff19166001179055565b600160a060020a03811615156124d1576040805160e560020a62461bcd02815260206004820152600e60248201527f766572696679206163636f756e74000000000000000000000000000000000000604482015290519081900360640190fd5b6124db8282612058565b1515612531576040805160e560020a62461bcd02815260206004820152601b60248201527f766572696679206163636f756e74206861732074686520726f6c650000000000604482015290519081900360640190fd5b600160a060020a0316600090815260209190915260409020805460ff19169055565b6101e06040519081016040528060008152602001600081526020016000600160a060020a031681526020016000600160a060020a0316815260200160608152602001606081526020016060815260200160608152602001600081526020016060815260200160008152602001600060078111156125cc57fe5b81526000602082018190526040820181905260609091015290565b828054600181600116156101000203166002900490600052602060002090601f016020900481019282601f1061262857805160ff1916838001178555612655565b82800160010185558215612655579182015b8281111561265557825182559160200191906001019061263a565b50612661929150612665565b5090565b61141e91905b80821115612661576000815560010161266b56fe43616c6c6572206973206e6f742061206661726d6572000000000000000000007665726966696573207468652043616c6c657200000000000000000000000000a165627a7a72305820659718b8bce313766bf74b8228a776e05f55424ffa6128137a5aa1c265ecefc20029",
  "source": "pragma solidity ^0.5.0;\r\n\r\nimport \"../coffeecore/Ownable.sol\";\r\nimport \"../coffeeaccesscontrol/FarmerRole.sol\";\r\nimport \"../coffeeaccesscontrol/DistributorRole.sol\";\r\nimport \"../coffeeaccesscontrol/RetailerRole.sol\";\r\nimport \"../coffeeaccesscontrol/ConsumerRole.sol\";\r\n\r\n// Define a contract 'Supplychain'\r\ncontract SupplyChain is Ownable, FarmerRole, DistributorRole, RetailerRole, ConsumerRole {\r\n\r\n  // Define a variable called 'upc' for Universal Product Code (UPC)\r\n  uint  upc;\r\n\r\n  // Define a variable called 'sku' for Stock Keeping Unit (SKU)\r\n  uint  sku;\r\n\r\n  // Define a public mapping 'items' that maps the UPC to an Item.\r\n  mapping (uint => Item) items;\r\n\r\n  // Define a public mapping 'itemsHistory' that maps the UPC to an array of TxHash,\r\n  // that track its journey through the supply chain -- to be sent from DApp.\r\n  mapping (uint => string[]) itemsHistory;\r\n  // Define enum 'State' with the following values:\r\n  enum State\r\n  {\r\n    Harvested,  // 0\r\n    Processed,  // 1\r\n    Packed,     // 2\r\n    ForSale,    // 3\r\n    Sold,       // 4\r\n    Shipped,    // 5\r\n    Received,   // 6\r\n    Purchased   // 7\r\n    }\r\n\r\n  State constant defaultState = State.Harvested;\r\n\r\n  // Define a struct 'Item' with the following fields:\r\n  struct Item {\r\n    uint    sku;  // Stock Keeping Unit (SKU)\r\n    uint    upc; // Universal Product Code (UPC), generated by the Farmer, goes on the package, can be verified by the Consumer\r\n    address ownerID;  // Metamask-Ethereum address of the current owner as the product moves through 8 stages\r\n    address payable originFarmerID; // Metamask-Ethereum address of the Farmer\r\n    string originFarmName; // Farmer Name\r\n    string originFarmInformation;  // Farmer Information\r\n    string originFarmLatitude; // Farm Latitude\r\n    string originFarmLongitude;  // Farm Longitude\r\n    uint    productID;  // Product ID potentially a combination of upc + sku\r\n    string productNotes; // Product Notes\r\n    uint    productPrice; // Product Price\r\n    State   itemState;  // Product State as represented in the enum above\r\n    address distributorID;  // Metamask-Ethereum address of the Distributor\r\n    address retailerID; // Metamask-Ethereum address of the Retailer\r\n    address payable consumerID; // Metamask-Ethereum address of the Consumer\r\n  }\r\n\r\n  // Define 8 events with the same 8 state values and accept 'upc' as input argument\r\n  event Harvested(uint upc);\r\n  event Processed(uint upc);\r\n  event Packed(uint upc);\r\n  event ForSale(uint upc);\r\n  event Sold(uint upc);\r\n  event Shipped(uint upc);\r\n  event Received(uint upc);\r\n  event Purchased(uint upc);\r\n\r\n  // Define a modifer that verifies the Caller\r\n  modifier verifyCaller (address _address) {\r\n    require(msg.sender == _address, \"verifies the Caller\");\r\n    _;\r\n  }\r\n\r\n  // Define a modifier that checks if the paid amount is sufficient to cover the price\r\n  modifier paidEnough(uint _price) {\r\n    require(msg.value >= _price, \"Paid amount is not sufficient\");\r\n    _;\r\n  }\r\n  // Define a modifier that checks the price and refunds the remaining balance\r\n  modifier checkValue(uint _upc) {\r\n    _;\r\n    uint _price = items[_upc].productPrice;\r\n    uint amountToReturn = msg.value - _price;\r\n    items[_upc].consumerID.transfer(amountToReturn);\r\n  }\r\n\r\n  // Define a modifier that checks if an item.state of a upc is Harvested\r\n  modifier harvested(uint _upc) {\r\n    require(items[_upc].itemState == State.Harvested, \"is not Harvested\");\r\n    _;\r\n  }\r\n\r\n  // Define a modifier that checks if an item.state of a upc is Processed\r\n  modifier processed(uint _upc) {\r\n    require(items[_upc].itemState == State.Processed, \"Is not Processed\");\r\n    _;\r\n  }\r\n  // Define a modifier that checks if an item.state of a upc is Packed\r\n  modifier packed(uint _upc) {\r\n    require(items[_upc].itemState == State.Packed, \"is not Packed\");\r\n    _;\r\n  }\r\n\r\n  // Define a modifier that checks if an item.state of a upc is ForSale\r\n  modifier forSale(uint _upc) {\r\n    require(items[_upc].itemState == State.ForSale, \"is not ForSale\");\r\n    _;\r\n  }\r\n\r\n  // Define a modifier that checks if an item.state of a upc is Sold\r\n  modifier sold(uint _upc) {\r\n    require(items[_upc].itemState == State.Sold, \"is not Sold\");\r\n    _;\r\n  }\r\n  // Define a modifier that checks if an item.state of a upc is Shipped\r\n  modifier shipped(uint _upc) {\r\n    require(items[_upc].itemState == State.Shipped, \"is not Shipped\");\r\n    _;\r\n  }\r\n\r\n  // Define a modifier that checks if an item.state of a upc is Received\r\n  modifier received(uint _upc) {\r\n    require(items[_upc].itemState == State.Received, \"Is not Received\");\r\n    _;\r\n  }\r\n\r\n  // Define a modifier that checks if an item.state of a upc is Purchased\r\n  modifier purchased(uint _upc) {\r\n    require(items[_upc].itemState == State.Purchased, \"Is not Purchased\");\r\n    _;\r\n  }\r\n\r\n  // and set 'sku' to 1\r\n  // and set 'upc' to 1\r\n  constructor() public {\r\n    sku = 1;\r\n    upc = 1;\r\n  }\r\n\r\n  // Define a function 'kill' if required\r\n  //function kill() public {\r\n  //  if (msg.sender == owner()) {\r\n  //    selfdestruct(owner());\r\n  //  }\r\n  //}\r\n\r\n  // Define a function 'harvestItem' that allows a farmer to mark an item 'Harvested'\r\n  function harvestItem(\r\n    uint _upc,\r\n    address payable _originFarmerID,\r\n    string memory _originFarmName,\r\n    string memory _originFarmInformation,\r\n    string memory _originFarmLatitude,\r\n    string memory _originFarmLongitude,\r\n    string memory _productNotes)\r\n    public\r\n    onlyFarmer\r\n  {\r\n    // Add the new item as part of Harvest\r\n    Item memory item = Item({\r\n        sku: sku,\r\n        upc: _upc,\r\n        ownerID: _originFarmerID,\r\n        originFarmerID: _originFarmerID,\r\n        originFarmName: _originFarmName,\r\n        originFarmInformation: _originFarmInformation,\r\n        originFarmLatitude: _originFarmLatitude,\r\n        originFarmLongitude: _originFarmLongitude,\r\n        productID: sku+_upc,\r\n        productNotes: _productNotes,\r\n        productPrice: 0,\r\n        itemState: defaultState,\r\n        distributorID: address(0),\r\n        retailerID: address(0),\r\n        consumerID: _originFarmerID\r\n    });\r\n    \r\n    items[_upc] = item;\r\n    // Increment sku\r\n    sku = sku + 1;\r\n    // Emit the appropriate event\r\n    emit Harvested(_upc);\r\n  }\r\n\r\n  // Define a function 'processtItem' that allows a farmer to mark an item 'Processed'\r\n  function processItem(uint _upc) public\r\n  // Call modifier to check if upc has passed previous supply chain stage\r\n  harvested(_upc)\r\n  // Call modifier to verify caller of this function\r\n  verifyCaller(items[_upc].originFarmerID)\r\n\r\n  onlyFarmer\r\n  {\r\n    // Update the appropriate fields\r\n    items[_upc].itemState = State.Processed;\r\n    // Emit the appropriate event\r\n    emit Processed(_upc);\r\n  }\r\n\r\n  // Define a function 'packItem' that allows a farmer to mark an item 'Packed'\r\n  function packItem(uint _upc) public\r\n  // Call modifier to check if upc has passed previous supply chain stage\r\n  processed(_upc)\r\n  // Call modifier to verify caller of this function\r\n  verifyCaller(items[_upc].originFarmerID)\r\n\r\n  onlyFarmer\r\n  {\r\n    // Update the appropriate fields\r\n    items[_upc].itemState = State.Packed;\r\n    // Emit the appropriate event\r\n    emit Packed(_upc);\r\n  }\r\n\r\n  // Define a function 'sellItem' that allows a farmer to mark an item 'ForSale'\r\n  function sellItem(uint _upc, uint _price) public\r\n  // Call modifier to check if upc has passed previous supply chain stage\r\n  packed(_upc)\r\n  // Call modifier to verify caller of this function\r\n  verifyCaller(items[_upc].originFarmerID)\r\n\r\n  onlyFarmer\r\n  {\r\n    // Update the appropriate fields\r\n    items[_upc].productPrice = _price;\r\n    items[_upc].itemState = State.ForSale;\r\n    // Emit the appropriate event\r\n    emit ForSale(_upc);\r\n  }\r\n\r\n  // Define a function 'buyItem' that allows the disributor to mark an item 'Sold'\r\n  // Use the above defined modifiers to check if the item is available for sale, if the buyer has paid enough\r\n  // and any excess ether sent is refunded back to the buyer\r\n  function buyItem(uint _upc) public payable\r\n    // Call modifier to check if upc has passed previous supply chain stage\r\n    forSale(_upc)\r\n    // Call modifer to check if buyer has paid enough\r\n    paidEnough(items[_upc].productPrice)\r\n    // Call modifer to send any excess ether back to buyer\r\n    checkValue(_upc)\r\n\r\n    onlyDistributor\r\n    {\r\n    // Update the appropriate fields - ownerID, distributorID, itemState\r\n    items[_upc].ownerID = msg.sender;\r\n    items[_upc].distributorID = msg.sender;\r\n    items[_upc].itemState = State.Sold;\r\n    // Transfer money to farmer\r\n    items[_upc].originFarmerID.transfer(items[_upc].productPrice);\r\n    // emit the appropriate event\r\n    emit Sold(_upc);\r\n  }\r\n\r\n  // Define a function 'shipItem' that allows the distributor to mark an item 'Shipped'\r\n  // Use the above modifers to check if the item is sold\r\n  function shipItem(uint _upc) public\r\n    // Call modifier to check if upc has passed previous supply chain stage\r\n    sold(_upc)\r\n    // Call modifier to verify caller of this function\r\n    verifyCaller(items[_upc].distributorID)\r\n\r\n    onlyDistributor\r\n    {\r\n    // Update the appropriate fields\r\n    items[_upc].itemState = State.Shipped;\r\n    // Emit the appropriate event\r\n    emit Shipped(_upc);\r\n  }\r\n\r\n  // Define a function 'receiveItem' that allows the retailer to mark an item 'Received'\r\n  // Use the above modifiers to check if the item is shipped\r\n  function receiveItem(uint _upc) public\r\n    // Call modifier to check if upc has passed previous supply chain stage\r\n    shipped(_upc)\r\n    // Access Control List enforced by calling Smart Contract / DApp\r\n    onlyRetailer\r\n    {\r\n    // Update the appropriate fields - ownerID, retailerID, itemState\r\n    items[_upc].ownerID = msg.sender;\r\n    items[_upc].retailerID = msg.sender;\r\n    items[_upc].itemState = State.Received;\r\n    // Emit the appropriate event\r\n    emit Received(_upc);\r\n  }\r\n\r\n  // Define a function 'purchaseItem' that allows the consumer to mark an item 'Purchased'\r\n  // Use the above modifiers to check if the item is received\r\n  function purchaseItem(uint _upc) public\r\n    // Call modifier to check if upc has passed previous supply chain stage\r\n    received(_upc)\r\n    // Access Control List enforced by calling Smart Contract / DApp\r\n    onlyConsumer\r\n    {\r\n    // Update the appropriate fields - ownerID, consumerID, itemState\r\n    items[_upc].ownerID = msg.sender;\r\n    items[_upc].consumerID = msg.sender;\r\n    items[_upc].itemState = State.Purchased;\r\n    // Emit the appropriate event\r\n    emit Purchased(_upc);\r\n  }\r\n\r\n  // Define a function 'fetchItemBufferOne' that fetches the data\r\n  function fetchItemBufferOne(uint _upc) public view returns\r\n  (\r\n    uint    itemSKU,\r\n    uint    itemUPC,\r\n    address ownerID,\r\n    address originFarmerID,\r\n    string memory originFarmName,\r\n    string memory originFarmInformation,\r\n    string memory originFarmLatitude,\r\n    string memory originFarmLongitude\r\n  )\r\n  {\r\n    // Assign values to the 8 parameters\r\n    itemSKU = items[_upc].sku;\r\n    itemUPC = items[_upc].upc;\r\n    ownerID = items[_upc].ownerID;\r\n    originFarmerID = items[_upc].originFarmerID;\r\n    originFarmName = items[_upc].originFarmName;\r\n    originFarmInformation = items[_upc].originFarmInformation;\r\n    originFarmLatitude = items[_upc].originFarmLatitude;\r\n    originFarmLongitude = items[_upc].originFarmLongitude;\r\n  return\r\n  (\r\n  itemSKU,\r\n  itemUPC,\r\n  ownerID,\r\n  originFarmerID,\r\n  originFarmName,\r\n  originFarmInformation,\r\n  originFarmLatitude,\r\n  originFarmLongitude\r\n  );\r\n  }\r\n\r\n  // Define a function 'fetchItemBufferTwo' that fetches the data\r\n  function fetchItemBufferTwo(uint _upc) public view returns\r\n  (\r\n  uint    itemSKU,\r\n  uint    itemUPC,\r\n  uint    productID,\r\n  string memory productNotes,\r\n  uint    productPrice,\r\n  uint    itemState,\r\n  address distributorID,\r\n  address retailerID,\r\n  address consumerID\r\n  )\r\n  {\r\n  // Assign values to the 9 parameters\r\n  itemSKU = items[_upc].sku;\r\n  itemUPC = items[_upc].upc;\r\n  productID = items[_upc].productID;\r\n  productNotes = items[_upc].productNotes;\r\n  productPrice = items[_upc].productPrice;\r\n  itemState = uint256(items[_upc].itemState);\r\n  distributorID = items[_upc].distributorID;\r\n  retailerID = items[_upc].retailerID;\r\n  consumerID = items[_upc].consumerID;\r\n  return\r\n  (\r\n  itemSKU,\r\n  itemUPC,\r\n  productID,\r\n  productNotes,\r\n  productPrice,\r\n  itemState,\r\n  distributorID,\r\n  retailerID,\r\n  consumerID\r\n  );\r\n  }\r\n}\r\n",
  "sourcePath": "C:/Users/gilbe/OneDrive/Documents/Project/Blockchain-DApp-for-tracking-items-through-Supply-Chain/contracts/coffeebase/SupplyChain.sol",
  "compiler": {
    "name": "solc",
    "version": "0.5.0+commit.1d4f565a.Emscripten.clang"
  },
  "schemaVersion": "3.0.1",
  "updatedAt": "2023-05-20T01:03:44.176Z",
  "devdoc": {
    "methods": {}
  },
  "userdoc": {
    "methods": {
      "isOwner()": {
        "notice": "Check if the calling address is the owner of the contract"
      },
      "owner()": {
        "notice": "Look up the address of the owner"
      },
      "renounceOwnership()": {
        "notice": "Define a function to renounce ownerhip"
      },
      "transferOwnership(address)": {
        "notice": "Define a public function to transfer ownership"
      }
    }
  }
}