{
  "contractName": "SupplyChain",
  "abi": [
    {
      "constant": false,
      "inputs": [
        {
          "name": "account",
          "type": "address"
        }
      ],
      "name": "addConsumer",
      "outputs": [],
      "payable": false,
      "stateMutability": "nonpayable",
      "type": "function",
      "signature": "0x112940f9"
    },
    {
      "constant": true,
      "inputs": [
        {
          "name": "account",
          "type": "address"
        }
      ],
      "name": "isRetailer",
      "outputs": [
        {
          "name": "",
          "type": "bool"
        }
      ],
      "payable": false,
      "stateMutability": "view",
      "type": "function",
      "signature": "0x5da09b88"
    },
    {
      "constant": false,
      "inputs": [],
      "name": "renounceConsumer",
      "outputs": [],
      "payable": false,
      "stateMutability": "nonpayable",
      "type": "function",
      "signature": "0x61e6982d"
    },
    {
      "constant": false,
      "inputs": [],
      "name": "renounceDistributor",
      "outputs": [],
      "payable": false,
      "stateMutability": "nonpayable",
      "type": "function",
      "signature": "0x644241db"
    },
    {
      "constant": false,
      "inputs": [],
      "name": "renounceOwnership",
      "outputs": [],
      "payable": false,
      "stateMutability": "nonpayable",
      "type": "function",
      "signature": "0x715018a6"
    },
    {
      "constant": false,
      "inputs": [
        {
          "name": "account",
          "type": "address"
        }
      ],
      "name": "addDistributor",
      "outputs": [],
      "payable": false,
      "stateMutability": "nonpayable",
      "type": "function",
      "signature": "0x7250e224"
    },
    {
      "constant": false,
      "inputs": [
        {
          "name": "account",
          "type": "address"
        }
      ],
      "name": "addFarmer",
      "outputs": [],
      "payable": false,
      "stateMutability": "nonpayable",
      "type": "function",
      "signature": "0x80c3f96d"
    },
    {
      "constant": false,
      "inputs": [],
      "name": "renounceFarmer",
      "outputs": [],
      "payable": false,
      "stateMutability": "nonpayable",
      "type": "function",
      "signature": "0x80fc0ce4"
    },
    {
      "constant": true,
      "inputs": [
        {
          "name": "account",
          "type": "address"
        }
      ],
      "name": "isConsumer",
      "outputs": [
        {
          "name": "",
          "type": "bool"
        }
      ],
      "payable": false,
      "stateMutability": "view",
      "type": "function",
      "signature": "0x834ff739"
    },
    {
      "constant": true,
      "inputs": [],
      "name": "owner",
      "outputs": [
        {
          "name": "",
          "type": "address"
        }
      ],
      "payable": false,
      "stateMutability": "view",
      "type": "function",
      "signature": "0x8da5cb5b"
    },
    {
      "constant": false,
      "inputs": [
        {
          "name": "account",
          "type": "address"
        }
      ],
      "name": "addRetailer",
      "outputs": [],
      "payable": false,
      "stateMutability": "nonpayable",
      "type": "function",
      "signature": "0x8ec4f505"
    },
    {
      "constant": true,
      "inputs": [
        {
          "name": "account",
          "type": "address"
        }
      ],
      "name": "isDistributor",
      "outputs": [
        {
          "name": "",
          "type": "bool"
        }
      ],
      "payable": false,
      "stateMutability": "view",
      "type": "function",
      "signature": "0x8f0c86fa"
    },
    {
      "constant": true,
      "inputs": [],
      "name": "isOwner",
      "outputs": [
        {
          "name": "",
          "type": "bool"
        }
      ],
      "payable": false,
      "stateMutability": "view",
      "type": "function",
      "signature": "0x8f32d59b"
    },
    {
      "constant": true,
      "inputs": [
        {
          "name": "account",
          "type": "address"
        }
      ],
      "name": "isFarmer",
      "outputs": [
        {
          "name": "",
          "type": "bool"
        }
      ],
      "payable": false,
      "stateMutability": "view",
      "type": "function",
      "signature": "0xb9429069"
    },
    {
      "constant": false,
      "inputs": [],
      "name": "renounceRetailer",
      "outputs": [],
      "payable": false,
      "stateMutability": "nonpayable",
      "type": "function",
      "signature": "0xdb0e6a2f"
    },
    {
      "constant": false,
      "inputs": [
        {
          "name": "newOwner",
          "type": "address"
        }
      ],
      "name": "transferOwnership",
      "outputs": [],
      "payable": false,
      "stateMutability": "nonpayable",
      "type": "function",
      "signature": "0xf2fde38b"
    },
    {
      "inputs": [],
      "payable": false,
      "stateMutability": "nonpayable",
      "type": "constructor",
      "signature": "constructor"
    },
    {
      "anonymous": false,
      "inputs": [
        {
          "indexed": false,
          "name": "upc",
          "type": "uint256"
        }
      ],
      "name": "Harvested",
      "type": "event",
      "signature": "0x8e55ccfc9778ff8eba1646d765cf1982537ce0f9257054a17b48aad745250183"
    },
    {
      "anonymous": false,
      "inputs": [
        {
          "indexed": false,
          "name": "upc",
          "type": "uint256"
        }
      ],
      "name": "Processed",
      "type": "event",
      "signature": "0x5afe3b1bf87069693c075da5c22a98d63d1aef98a30dbbe538d0781a98b77ee5"
    },
    {
      "anonymous": false,
      "inputs": [
        {
          "indexed": false,
          "name": "upc",
          "type": "uint256"
        }
      ],
      "name": "Packed",
      "type": "event",
      "signature": "0x9b3b66e2380b690bae22c73ef1428fb0c91e72fe14a4b6defa13035214187aff"
    },
    {
      "anonymous": false,
      "inputs": [
        {
          "indexed": false,
          "name": "upc",
          "type": "uint256"
        }
      ],
      "name": "ForSale",
      "type": "event",
      "signature": "0xa96ae0fc3224ebd79eebfe54bd130cc9cb94416cddd1f2386115e00b72532468"
    },
    {
      "anonymous": false,
      "inputs": [
        {
          "indexed": false,
          "name": "upc",
          "type": "uint256"
        }
      ],
      "name": "Sold",
      "type": "event",
      "signature": "0x92f64ca637d023f354075a4be751b169c1a8a9ccb6d33cdd0cb3520543995727"
    },
    {
      "anonymous": false,
      "inputs": [
        {
          "indexed": false,
          "name": "upc",
          "type": "uint256"
        }
      ],
      "name": "Shipped",
      "type": "event",
      "signature": "0xf00b9a5725b80c54016f42114f6ed7792d22eecb116011c4afac29c57bef6c95"
    },
    {
      "anonymous": false,
      "inputs": [
        {
          "indexed": false,
          "name": "upc",
          "type": "uint256"
        }
      ],
      "name": "Received",
      "type": "event",
      "signature": "0xa8142743f8f70a4c26f3691cf4ed59718381fb2f18070ec52be1f1022d855557"
    },
    {
      "anonymous": false,
      "inputs": [
        {
          "indexed": false,
          "name": "upc",
          "type": "uint256"
        }
      ],
      "name": "Purchased",
      "type": "event",
      "signature": "0x653d56639fee6b566a5c804764e9689de38645f0b733df89a36a1b7b42173dd8"
    },
    {
      "anonymous": false,
      "inputs": [
        {
          "indexed": true,
          "name": "account",
          "type": "address"
        }
      ],
      "name": "ConsumerAdded",
      "type": "event",
      "signature": "0x28b26e7a3d20aedbc5f8f2ebf7da671c0491723a2b78f47a097b0e46dee07142"
    },
    {
      "anonymous": false,
      "inputs": [
        {
          "indexed": true,
          "name": "account",
          "type": "address"
        }
      ],
      "name": "ConsumerRemoved",
      "type": "event",
      "signature": "0xe3f5ed5f263f1f01764a96edfc7d025f511ec5f7d180e8816908b78bcf74f098"
    },
    {
      "anonymous": false,
      "inputs": [
        {
          "indexed": true,
          "name": "account",
          "type": "address"
        }
      ],
      "name": "RetailerAdded",
      "type": "event",
      "signature": "0x71ae26cad02663e3d92efd6ec56031a80d74a20c0ab4183faa8bf262261c9baa"
    },
    {
      "anonymous": false,
      "inputs": [
        {
          "indexed": true,
          "name": "account",
          "type": "address"
        }
      ],
      "name": "RetailerRemoved",
      "type": "event",
      "signature": "0xdb7176e79cffef81cb01767dd0447a0b24bb72ca9778d4b245581086b2a7e6db"
    },
    {
      "anonymous": false,
      "inputs": [
        {
          "indexed": true,
          "name": "account",
          "type": "address"
        }
      ],
      "name": "DistributorAdded",
      "type": "event",
      "signature": "0xddbf200aa634dc3fb81cfd68583dd1040d1c751d335e1d86b631bde3e977fea8"
    },
    {
      "anonymous": false,
      "inputs": [
        {
          "indexed": true,
          "name": "account",
          "type": "address"
        }
      ],
      "name": "DistributorRemoved",
      "type": "event",
      "signature": "0x126174f6cf49c81cdb4a9214c6b8f037bef55b4ec31e4fc776cea2a1c8a88d59"
    },
    {
      "anonymous": false,
      "inputs": [
        {
          "indexed": true,
          "name": "account",
          "type": "address"
        }
      ],
      "name": "FarmerAdded",
      "type": "event",
      "signature": "0x2e0ded4123377a3c2bc9a26f1717655a129e2f20752924d42e730ec89c83dbd0"
    },
    {
      "anonymous": false,
      "inputs": [
        {
          "indexed": true,
          "name": "account",
          "type": "address"
        }
      ],
      "name": "FarmerRemoved",
      "type": "event",
      "signature": "0xa5e0f060af304ab17dd418c7927e3da3ae7868189bf387aee09ab179ccc572f2"
    },
    {
      "anonymous": false,
      "inputs": [
        {
          "indexed": true,
          "name": "oldOwner",
          "type": "address"
        },
        {
          "indexed": true,
          "name": "newOwner",
          "type": "address"
        }
      ],
      "name": "TransferOwnership",
      "type": "event",
      "signature": "0x5c486528ec3e3f0ea91181cff8116f02bfa350e03b8b6f12e00765adbb5af85c"
    },
    {
      "constant": false,
      "inputs": [
        {
          "name": "_upc",
          "type": "uint256"
        },
        {
          "name": "_originFarmerID",
          "type": "address"
        },
        {
          "name": "_originFarmName",
          "type": "string"
        },
        {
          "name": "_originFarmInformation",
          "type": "string"
        },
        {
          "name": "_originFarmLatitude",
          "type": "string"
        },
        {
          "name": "_originFarmLongitude",
          "type": "string"
        },
        {
          "name": "_productNotes",
          "type": "string"
        }
      ],
      "name": "harvestItem",
      "outputs": [],
      "payable": false,
      "stateMutability": "nonpayable",
      "type": "function",
      "signature": "0xbdd8a6a8"
    },
    {
      "constant": false,
      "inputs": [
        {
          "name": "_upc",
          "type": "uint256"
        }
      ],
      "name": "processItem",
      "outputs": [],
      "payable": false,
      "stateMutability": "nonpayable",
      "type": "function",
      "signature": "0x49dae766"
    },
    {
      "constant": false,
      "inputs": [
        {
          "name": "_upc",
          "type": "uint256"
        }
      ],
      "name": "packItem",
      "outputs": [],
      "payable": false,
      "stateMutability": "nonpayable",
      "type": "function",
      "signature": "0xf30fc480"
    },
    {
      "constant": false,
      "inputs": [
        {
          "name": "_upc",
          "type": "uint256"
        },
        {
          "name": "_price",
          "type": "uint256"
        }
      ],
      "name": "sellItem",
      "outputs": [],
      "payable": false,
      "stateMutability": "nonpayable",
      "type": "function",
      "signature": "0x2d923561"
    },
    {
      "constant": false,
      "inputs": [
        {
          "name": "_upc",
          "type": "uint256"
        }
      ],
      "name": "buyItem",
      "outputs": [],
      "payable": true,
      "stateMutability": "payable",
      "type": "function",
      "signature": "0xe7fb74c7"
    },
    {
      "constant": false,
      "inputs": [
        {
          "name": "_upc",
          "type": "uint256"
        }
      ],
      "name": "shipItem",
      "outputs": [],
      "payable": false,
      "stateMutability": "nonpayable",
      "type": "function",
      "signature": "0xf61c899a"
    },
    {
      "constant": false,
      "inputs": [
        {
          "name": "_upc",
          "type": "uint256"
        }
      ],
      "name": "receiveItem",
      "outputs": [],
      "payable": false,
      "stateMutability": "nonpayable",
      "type": "function",
      "signature": "0xa26be999"
    },
    {
      "constant": false,
      "inputs": [
        {
          "name": "_upc",
          "type": "uint256"
        }
      ],
      "name": "purchaseItem",
      "outputs": [],
      "payable": false,
      "stateMutability": "nonpayable",
      "type": "function",
      "signature": "0xd38ea5bf"
    },
    {
      "constant": true,
      "inputs": [
        {
          "name": "_upc",
          "type": "uint256"
        }
      ],
      "name": "fetchItemBufferOne1",
      "outputs": [
        {
          "name": "itemSKU",
          "type": "uint256"
        },
        {
          "name": "itemUPC",
          "type": "uint256"
        },
        {
          "name": "ownerID",
          "type": "address"
        },
        {
          "name": "originFarmerID",
          "type": "address"
        },
        {
          "name": "originFarmName",
          "type": "string"
        },
        {
          "name": "originFarmInformation",
          "type": "string"
        },
        {
          "name": "originFarmLatitude",
          "type": "string"
        },
        {
          "name": "originFarmLongitude",
          "type": "string"
        }
      ],
      "payable": false,
      "stateMutability": "view",
      "type": "function",
      "signature": "0x6e207a6d"
    },
    {
      "constant": true,
      "inputs": [
        {
          "name": "_upc",
          "type": "uint256"
        }
      ],
      "name": "fetchItemBufferOne",
      "outputs": [
        {
          "name": "itemSKU",
          "type": "uint256"
        },
        {
          "name": "itemUPC",
          "type": "uint256"
        },
        {
          "name": "ownerID",
          "type": "address"
        },
        {
          "name": "originFarmerID",
          "type": "address"
        },
        {
          "name": "originFarmName",
          "type": "string"
        },
        {
          "name": "originFarmInformation",
          "type": "string"
        },
        {
          "name": "originFarmLatitude",
          "type": "string"
        },
        {
          "name": "originFarmLongitude",
          "type": "string"
        }
      ],
      "payable": false,
      "stateMutability": "view",
      "type": "function",
      "signature": "0x77c45913"
    },
    {
      "constant": true,
      "inputs": [
        {
          "name": "_upc",
          "type": "uint256"
        }
      ],
      "name": "fetchItemBufferTwo",
      "outputs": [
        {
          "name": "itemSKU",
          "type": "uint256"
        },
        {
          "name": "itemUPC",
          "type": "uint256"
        },
        {
          "name": "productID",
          "type": "uint256"
        },
        {
          "name": "productNotes",
          "type": "string"
        },
        {
          "name": "productPrice",
          "type": "uint256"
        },
        {
          "name": "itemState",
          "type": "uint256"
        },
        {
          "name": "distributorID",
          "type": "address"
        },
        {
          "name": "retailerID",
          "type": "address"
        },
        {
          "name": "consumerID",
          "type": "address"
        }
      ],
      "payable": false,
      "stateMutability": "view",
      "type": "function",
      "signature": "0x66225ff9"
    }
  ],
  "bytecode": "0x60806040523480156200001157600080fd5b5060008054600160a060020a0319163317808255604051600160a060020a039190911691907f5c486528ec3e3f0ea91181cff8116f02bfa350e03b8b6f12e00765adbb5af85c908290a36200006f33640100000000620000bb810204565b62000083336401000000006200010d810204565b62000097336401000000006200015f810204565b620000ab33640100000000620001b1810204565b60016006819055600555620003bc565b620000d6600182640100000000620027c06200020382021704565b604051600160a060020a038216907f2e0ded4123377a3c2bc9a26f1717655a129e2f20752924d42e730ec89c83dbd090600090a250565b62000128600282640100000000620027c06200020382021704565b604051600160a060020a038216907fddbf200aa634dc3fb81cfd68583dd1040d1c751d335e1d86b631bde3e977fea890600090a250565b6200017a600382640100000000620027c06200020382021704565b604051600160a060020a038216907f71ae26cad02663e3d92efd6ec56031a80d74a20c0ab4183faa8bf262261c9baa90600090a250565b620001cc600482640100000000620027c06200020382021704565b604051600160a060020a038216907f28b26e7a3d20aedbc5f8f2ebf7da671c0491723a2b78f47a097b0e46dee0714290600090a250565b600160a060020a03811615156200027b57604080517f08c379a000000000000000000000000000000000000000000000000000000000815260206004820152600e60248201527f766572696679206163636f756e74000000000000000000000000000000000000604482015290519081900360640190fd5b62000290828264010000000062000322810204565b15620002fd57604080517f08c379a000000000000000000000000000000000000000000000000000000000815260206004820152601b60248201527f766572696679206163636f756e74206861732074686520726f6c650000000000604482015290519081900360640190fd5b600160a060020a0316600090815260209190915260409020805460ff19166001179055565b6000600160a060020a03821615156200039c57604080517f08c379a000000000000000000000000000000000000000000000000000000000815260206004820152601760248201527f4163636f756e74206973206e6f74207665726966696564000000000000000000604482015290519081900360640190fd5b50600160a060020a03166000908152602091909152604090205460ff1690565b612b1e80620003cc6000396000f3fe60806040526004361061015e5763ffffffff7c0100000000000000000000000000000000000000000000000000000000600035041663112940f981146101635780632d9235611461019857806349dae766146101c85780635da09b88146101f257806361e6982d14610239578063644241db1461024e57806366225ff9146102635780636e207a6d14610373578063715018a6146105875780637250e2241461059c57806377c45913146105cf57806380c3f96d146105f957806380fc0ce41461062c578063834ff739146106415780638da5cb5b146106745780638ec4f505146106a55780638f0c86fa146106d85780638f32d59b1461070b578063a26be99914610720578063b94290691461074a578063bdd8a6a81461077d578063d38ea5bf14610a61578063db0e6a2f14610a8b578063e7fb74c714610aa0578063f2fde38b14610abd578063f30fc48014610af0578063f61c899a14610b1a575b600080fd5b34801561016f57600080fd5b506101966004803603602081101561018657600080fd5b5035600160a060020a0316610b44565b005b3480156101a457600080fd5b50610196600480360360408110156101bb57600080fd5b5080359060200135610baf565b3480156101d457600080fd5b50610196600480360360208110156101eb57600080fd5b5035610d34565b3480156101fe57600080fd5b506102256004803603602081101561021557600080fd5b5035600160a060020a0316610eb0565b604080519115158252519081900360200190f35b34801561024557600080fd5b50610196610ec9565b34801561025a57600080fd5b50610196610ed4565b34801561026f57600080fd5b5061028d6004803603602081101561028657600080fd5b5035610edd565b604051808a81526020018981526020018881526020018060200187815260200186815260200185600160a060020a0316600160a060020a0316815260200184600160a060020a0316600160a060020a0316815260200183600160a060020a0316600160a060020a03168152602001828103825288818151815260200191508051906020019080838360005b83811015610330578181015183820152602001610318565b50505050905090810190601f16801561035d5780820380516001836020036101000a031916815260200191505b509a505050505050505050505060405180910390f35b34801561037f57600080fd5b5061039d6004803603602081101561039657600080fd5b5035611010565b6040518089815260200188815260200187600160a060020a0316600160a060020a0316815260200186600160a060020a0316600160a060020a0316815260200180602001806020018060200180602001858103855289818151815260200191508051906020019080838360005b8381101561042257818101518382015260200161040a565b50505050905090810190601f16801561044f5780820380516001836020036101000a031916815260200191505b5085810384528851815288516020918201918a019080838360005b8381101561048257818101518382015260200161046a565b50505050905090810190601f1680156104af5780820380516001836020036101000a031916815260200191505b50858103835287518152875160209182019189019080838360005b838110156104e25781810151838201526020016104ca565b50505050905090810190601f16801561050f5780820380516001836020036101000a031916815260200191505b50858103825286518152865160209182019188019080838360005b8381101561054257818101518382015260200161052a565b50505050905090810190601f16801561056f5780820380516001836020036101000a031916815260200191505b509c5050505050505050505050505060405180910390f35b34801561059357600080fd5b506101966112c4565b3480156105a857600080fd5b50610196600480360360208110156105bf57600080fd5b5035600160a060020a031661136c565b3480156105db57600080fd5b5061039d600480360360208110156105f257600080fd5b50356113d4565b34801561060557600080fd5b506101966004803603602081101561061c57600080fd5b5035600160a060020a03166117d2565b34801561063857600080fd5b50610196611828565b34801561064d57600080fd5b506102256004803603602081101561066457600080fd5b5035600160a060020a0316611831565b34801561068057600080fd5b50610689611844565b60408051600160a060020a039092168252519081900360200190f35b3480156106b157600080fd5b50610196600480360360208110156106c857600080fd5b5035600160a060020a0316611854565b3480156106e457600080fd5b50610225600480360360208110156106fb57600080fd5b5035600160a060020a03166118bc565b34801561071757600080fd5b506102256118cf565b34801561072c57600080fd5b506101966004803603602081101561074357600080fd5b50356118e0565b34801561075657600080fd5b506102256004803603602081101561076d57600080fd5b5035600160a060020a0316611a35565b34801561078957600080fd5b50610196600480360360e08110156107a057600080fd5b813591600160a060020a03602082013516918101906060810160408201356401000000008111156107d057600080fd5b8201836020820111156107e257600080fd5b8035906020019184600183028401116401000000008311171561080457600080fd5b91908080601f016020809104026020016040519081016040528093929190818152602001838380828437600092019190915250929594936020810193503591505064010000000081111561085757600080fd5b82018360208201111561086957600080fd5b8035906020019184600183028401116401000000008311171561088b57600080fd5b91908080601f01602080910402602001604051908101604052809392919081815260200183838082843760009201919091525092959493602081019350359150506401000000008111156108de57600080fd5b8201836020820111156108f057600080fd5b8035906020019184600183028401116401000000008311171561091257600080fd5b91908080601f016020809104026020016040519081016040528093929190818152602001838380828437600092019190915250929594936020810193503591505064010000000081111561096557600080fd5b82018360208201111561097757600080fd5b8035906020019184600183028401116401000000008311171561099957600080fd5b91908080601f01602080910402602001604051908101604052809392919081815260200183838082843760009201919091525092959493602081019350359150506401000000008111156109ec57600080fd5b8201836020820111156109fe57600080fd5b80359060200191846001830284011164010000000083111715610a2057600080fd5b91908080601f016020809104026020016040519081016040528093929190818152602001838380828437600092019190915250929550611a48945050505050565b348015610a6d57600080fd5b5061019660048036036020811015610a8457600080fd5b5035611cfd565b348015610a9757600080fd5b50610196611e55565b61019660048036036020811015610ab657600080fd5b5035611e5e565b348015610ac957600080fd5b5061019660048036036020811015610ae057600080fd5b5035600160a060020a03166120cb565b348015610afc57600080fd5b5061019660048036036020811015610b1357600080fd5b5035612132565b348015610b2657600080fd5b5061019660048036036020811015610b3d57600080fd5b50356122af565b610b4d33611831565b1515610ba3576040805160e560020a62461bcd02815260206004820152601960248201527f43616c6c6572206973206e6f74206120636f6e73756d65722e00000000000000604482015290519081900360640190fd5b610bac81612443565b50565b8160026000828152600760208190526040909120600b015460ff1690811115610bd457fe5b14610c29576040805160e560020a62461bcd02815260206004820152600d60248201527f6973206e6f74205061636b656400000000000000000000000000000000000000604482015290519081900360640190fd5b600083815260076020526040902060030154600160a060020a0316338114610c89576040805160e560020a62461bcd0281526020600482015260136024820152600080516020612ad3833981519152604482015290519081900360640190fd5b610c9233611a35565b1515610cd6576040805160e560020a62461bcd0281526020600482015260166024820152600080516020612ab3833981519152604482015290519081900360640190fd5b600084815260076020908152604091829020600a8101869055600b01805460ff19166003179055815186815291517fa96ae0fc3224ebd79eebfe54bd130cc9cb94416cddd1f2386115e00b725324689281900390910190a150505050565b80600080828152600760208190526040909120600b015460ff1690811115610d5857fe5b14610dad576040805160e560020a62461bcd02815260206004820152601060248201527f6973206e6f742048617276657374656400000000000000000000000000000000604482015290519081900360640190fd5b600082815260076020526040902060030154600160a060020a0316338114610e0d576040805160e560020a62461bcd0281526020600482015260136024820152600080516020612ad3833981519152604482015290519081900360640190fd5b610e1633611a35565b1515610e5a576040805160e560020a62461bcd0281526020600482015260166024820152600080516020612ab3833981519152604482015290519081900360640190fd5b600083815260076020908152604091829020600b01805460ff19166001179055815185815291517f5afe3b1bf87069693c075da5c22a98d63d1aef98a30dbbe538d0781a98b77ee59281900390910190a1505050565b6000610ec360038363ffffffff61248b16565b92915050565b610ed23361250d565b565b610ed233612555565b600081815260076020908152604080832080546001808301546008840154600990940180548651600294821615610100026000190190911693909304601f81018890048802840188019096528583529296909593946060949193849384938493849391830182828015610f915780601f10610f6657610100808354040283529160200191610f91565b820191906000526020600020905b815481529060010190602001808311610f7457829003601f168201915b50505060008d8152600760208190526040909120600a810154600b90910154949a50985060ff909316928311159150610fc8905057fe5b60008b8152600760205260409020600b810154600c820154600d90920154929650600160a060020a036101009091048116955090811693501690509193959799909294969850565b600081815260076020908152604091829020805460018083015460028085015460038601546004909601805489516101009682161596909602600019011692909204601f810188900488028501880190985287845293969195600160a060020a039485169594909416936060938493849384939091908301828280156110d75780601f106110ac576101008083540402835291602001916110d7565b820191906000526020600020905b8154815290600101906020018083116110ba57829003601f168201915b50505060008c8152600760209081526040918290206005018054835160026001831615610100026000190190921691909104601f810184900484028201840190945283815295995093509091508301828280156111755780601f1061114a57610100808354040283529160200191611175565b820191906000526020600020905b81548152906001019060200180831161115857829003601f168201915b50505060008c8152600760209081526040918290206006018054835160026001831615610100026000190190921691909104601f810184900484028201840190945283815295985093509091508301828280156112135780601f106111e857610100808354040283529160200191611213565b820191906000526020600020905b8154815290600101906020018083116111f657829003601f168201915b50505060008c8152600760208181526040928390209091018054835160026001831615610100026000190190921691909104601f810184900484028201840190945283815295975093509091508301828280156112b15780601f10611286576101008083540402835291602001916112b1565b820191906000526020600020905b81548152906001019060200180831161129457829003601f168201915b5093945050505050919395975091939597565b6112cc6118cf565b1515611322576040805160e560020a62461bcd02815260206004820152600960248201527f6e6f74206f776e65720000000000000000000000000000000000000000000000604482015290519081900360640190fd5b60008054604051600160a060020a03909116907f5c486528ec3e3f0ea91181cff8116f02bfa350e03b8b6f12e00765adbb5af85c908390a360008054600160a060020a0319169055565b611375336118bc565b15156113cb576040805160e560020a62461bcd02815260206004820152601c60248201527f43616c6c6572206973206e6f742061206469737472696275746f722e00000000604482015290519081900360640190fd5b610bac8161259d565b6000806000806060806060806113e8612986565b60008a81526007602090815260409182902082516101e0810184528154815260018083015482850152600280840154600160a060020a0390811684880152600385015416606084015260048401805487516101009482161594909402600019011691909104601f8101869004860283018601909652858252919492936080860193919291908301828280156114be5780601f10611493576101008083540402835291602001916114be565b820191906000526020600020905b8154815290600101906020018083116114a157829003601f168201915b505050918352505060058201805460408051602060026001851615610100026000190190941693909304601f81018490048402820184019092528181529382019392918301828280156115525780601f1061152757610100808354040283529160200191611552565b820191906000526020600020905b81548152906001019060200180831161153557829003601f168201915b505050918352505060068201805460408051602060026001851615610100026000190190941693909304601f81018490048402820184019092528181529382019392918301828280156115e65780601f106115bb576101008083540402835291602001916115e6565b820191906000526020600020905b8154815290600101906020018083116115c957829003601f168201915b505050918352505060078201805460408051602060026001851615610100026000190190941693909304601f810184900484028201840190925281815293820193929183018282801561167a5780601f1061164f5761010080835404028352916020019161167a565b820191906000526020600020905b81548152906001019060200180831161165d57829003601f168201915b5050509183525050600882015460208083019190915260098301805460408051601f600260001961010060018716150201909416939093049283018590048502810185018252828152940193928301828280156117185780601f106116ed57610100808354040283529160200191611718565b820191906000526020600020905b8154815290600101906020018083116116fb57829003601f168201915b5050509183525050600a8201546020820152600b82015460409091019060ff16600781111561174357fe5b600781111561174e57fe5b8152600b820154600160a060020a036101009091048116602080840191909152600c8401548216604080850191909152600d909401549091166060928301528351908401519284015191840151608085015160a086015160c087015160e090970151939f50949d50929b509950909750909550909350915050919395975091939597565b6117db33611a35565b151561181f576040805160e560020a62461bcd0281526020600482015260166024820152600080516020612ab3833981519152604482015290519081900360640190fd5b610bac816125e5565b610ed23361262d565b6000610ec360048363ffffffff61248b16565b600054600160a060020a03165b90565b61185d33610eb0565b15156118b3576040805160e560020a62461bcd02815260206004820152601960248201527f43616c6c6572206973206e6f7420612072657461696c65722e00000000000000604482015290519081900360640190fd5b610bac81612675565b6000610ec360028363ffffffff61248b16565b600054600160a060020a0316331490565b8060056000828152600760208190526040909120600b015460ff169081111561190557fe5b1461195a576040805160e560020a62461bcd02815260206004820152600e60248201527f6973206e6f742053686970706564000000000000000000000000000000000000604482015290519081900360640190fd5b61196333610eb0565b15156119b9576040805160e560020a62461bcd02815260206004820152601960248201527f43616c6c6572206973206e6f7420612072657461696c65722e00000000000000604482015290519081900360640190fd5b600082815260076020908152604091829020600281018054600160a060020a031990811633908117909255600c830180549091169091179055600b01805460ff19166006179055815184815291517fa8142743f8f70a4c26f3691cf4ed59718381fb2f18070ec52be1f1022d8555579281900390910190a15050565b6000610ec360018363ffffffff61248b16565b611a5133611a35565b1515611a95576040805160e560020a62461bcd0281526020600482015260166024820152600080516020612ab3833981519152604482015290519081900360640190fd5b611a9d612986565b6101e060405190810160405280600654815260200189815260200188600160a060020a0316815260200188600160a060020a03168152602001878152602001868152602001858152602001848152602001896006540181526020018381526020016000815260200160006007811115611b1257fe5b815260006020808301829052604080840183905260609384018390528c835260078252918290208451815584820151600182015591840151600283018054600160a060020a0319908116600160a060020a0393841617909155938501516003840180549095169116179092556080830151805193945084939192611b9e92600485019290910190612a1a565b5060a08201518051611bba916005840191602090910190612a1a565b5060c08201518051611bd6916006840191602090910190612a1a565b5060e08201518051611bf2916007840191602090910190612a1a565b5061010082015160088201556101208201518051611c1a916009840191602090910190612a1a565b50610140820151600a820155610160820151600b8201805460ff19166001836007811115611c4457fe5b0217905550610180820151600b8201805474ffffffffffffffffffffffffffffffffffffffff001916610100600160a060020a03938416021790556101a0830151600c83018054600160a060020a03199081169284169290921790556101c090930151600d909201805490931691161790556006805460010190556040805189815290517f8e55ccfc9778ff8eba1646d765cf1982537ce0f9257054a17b48aad745250183916020908290030190a15050505050505050565b8060066000828152600760208190526040909120600b015460ff1690811115611d2257fe5b14611d77576040805160e560020a62461bcd02815260206004820152600f60248201527f4973206e6f742052656365697665640000000000000000000000000000000000604482015290519081900360640190fd5b611d8033611831565b1515611dd6576040805160e560020a62461bcd02815260206004820152601960248201527f43616c6c6572206973206e6f74206120636f6e73756d65722e00000000000000604482015290519081900360640190fd5b600082815260076020819052604090912060028101805433600160a060020a03199182168117909255600d830180549091169091179055600b01805460ff191660018302179055506040805183815290517f653d56639fee6b566a5c804764e9689de38645f0b733df89a36a1b7b42173dd89181900360200190a15050565b610ed2336126bd565b8060036000828152600760208190526040909120600b015460ff1690811115611e8357fe5b14611ed8576040805160e560020a62461bcd02815260206004820152600e60248201527f6973206e6f7420466f7253616c65000000000000000000000000000000000000604482015290519081900360640190fd5b6000828152600760205260409020600a015434811115611f42576040805160e560020a62461bcd02815260206004820152601d60248201527f5061696420616d6f756e74206973206e6f742073756666696369656e74000000604482015290519081900360640190fd5b82611f4c336118bc565b1515611fa2576040805160e560020a62461bcd02815260206004820152601c60248201527f43616c6c6572206973206e6f742061206469737472696275746f722e00000000604482015290519081900360640190fd5b600084815260076020526040808220600281018054600160a060020a03191633908117909155600b8201805460ff1961010090930274ffffffffffffffffffffffffffffffffffffffff0019909116179190911660041790556003810154600a909101549151600160a060020a03909116926108fc831502929190818181858888f1935050505015801561203a573d6000803e3d6000fd5b506040805185815290517f92f64ca637d023f354075a4be751b169c1a8a9ccb6d33cdd0cb35205439957279181900360200190a1600081815260076020526040808220600a810154600d90910154915190923484900392600160a060020a03169183156108fc0291849190818181858888f193505050501580156120c2573d6000803e3d6000fd5b50505050505050565b6120d36118cf565b1515612129576040805160e560020a62461bcd02815260206004820152600960248201527f6e6f74206f776e65720000000000000000000000000000000000000000000000604482015290519081900360640190fd5b610bac81612705565b8060016000828152600760208190526040909120600b015460ff169081111561215757fe5b146121ac576040805160e560020a62461bcd02815260206004820152601060248201527f4973206e6f742050726f63657373656400000000000000000000000000000000604482015290519081900360640190fd5b600082815260076020526040902060030154600160a060020a031633811461220c576040805160e560020a62461bcd0281526020600482015260136024820152600080516020612ad3833981519152604482015290519081900360640190fd5b61221533611a35565b1515612259576040805160e560020a62461bcd0281526020600482015260166024820152600080516020612ab3833981519152604482015290519081900360640190fd5b600083815260076020908152604091829020600b01805460ff19166002179055815185815291517f9b3b66e2380b690bae22c73ef1428fb0c91e72fe14a4b6defa13035214187aff9281900390910190a1505050565b8060046000828152600760208190526040909120600b015460ff16908111156122d457fe5b14612329576040805160e560020a62461bcd02815260206004820152600b60248201527f6973206e6f7420536f6c64000000000000000000000000000000000000000000604482015290519081900360640190fd5b6000828152600760205260409020600b01546101009004600160a060020a031633811461238e576040805160e560020a62461bcd0281526020600482015260136024820152600080516020612ad3833981519152604482015290519081900360640190fd5b612397336118bc565b15156123ed576040805160e560020a62461bcd02815260206004820152601c60248201527f43616c6c6572206973206e6f742061206469737472696275746f722e00000000604482015290519081900360640190fd5b600083815260076020908152604091829020600b01805460ff19166005179055815185815291517ff00b9a5725b80c54016f42114f6ed7792d22eecb116011c4afac29c57bef6c959281900390910190a1505050565b61245460048263ffffffff6127c016565b604051600160a060020a038216907f28b26e7a3d20aedbc5f8f2ebf7da671c0491723a2b78f47a097b0e46dee0714290600090a250565b6000600160a060020a03821615156124ed576040805160e560020a62461bcd02815260206004820152601760248201527f4163636f756e74206973206e6f74207665726966696564000000000000000000604482015290519081900360640190fd5b50600160a060020a03166000908152602091909152604090205460ff1690565b61251e60048263ffffffff6128a416565b604051600160a060020a038216907fe3f5ed5f263f1f01764a96edfc7d025f511ec5f7d180e8816908b78bcf74f09890600090a250565b61256660028263ffffffff6128a416565b604051600160a060020a038216907f126174f6cf49c81cdb4a9214c6b8f037bef55b4ec31e4fc776cea2a1c8a88d5990600090a250565b6125ae60028263ffffffff6127c016565b604051600160a060020a038216907fddbf200aa634dc3fb81cfd68583dd1040d1c751d335e1d86b631bde3e977fea890600090a250565b6125f660018263ffffffff6127c016565b604051600160a060020a038216907f2e0ded4123377a3c2bc9a26f1717655a129e2f20752924d42e730ec89c83dbd090600090a250565b61263e60018263ffffffff6128a416565b604051600160a060020a038216907fa5e0f060af304ab17dd418c7927e3da3ae7868189bf387aee09ab179ccc572f290600090a250565b61268660038263ffffffff6127c016565b604051600160a060020a038216907f71ae26cad02663e3d92efd6ec56031a80d74a20c0ab4183faa8bf262261c9baa90600090a250565b6126ce60038263ffffffff6128a416565b604051600160a060020a038216907fdb7176e79cffef81cb01767dd0447a0b24bb72ca9778d4b245581086b2a7e6db90600090a250565b600160a060020a0381161515612765576040805160e560020a62461bcd02815260206004820152601160248201527f6e6f742076616c69642061646472657373000000000000000000000000000000604482015290519081900360640190fd5b60008054604051600160a060020a03808516939216917f5c486528ec3e3f0ea91181cff8116f02bfa350e03b8b6f12e00765adbb5af85c91a360008054600160a060020a031916600160a060020a0392909216919091179055565b600160a060020a0381161515612820576040805160e560020a62461bcd02815260206004820152600e60248201527f766572696679206163636f756e74000000000000000000000000000000000000604482015290519081900360640190fd5b61282a828261248b565b1561287f576040805160e560020a62461bcd02815260206004820152601b60248201527f766572696679206163636f756e74206861732074686520726f6c650000000000604482015290519081900360640190fd5b600160a060020a0316600090815260209190915260409020805460ff19166001179055565b600160a060020a0381161515612904576040805160e560020a62461bcd02815260206004820152600e60248201527f766572696679206163636f756e74000000000000000000000000000000000000604482015290519081900360640190fd5b61290e828261248b565b1515612964576040805160e560020a62461bcd02815260206004820152601b60248201527f766572696679206163636f756e74206861732074686520726f6c650000000000604482015290519081900360640190fd5b600160a060020a0316600090815260209190915260409020805460ff19169055565b6101e06040519081016040528060008152602001600081526020016000600160a060020a031681526020016000600160a060020a0316815260200160608152602001606081526020016060815260200160608152602001600081526020016060815260200160008152602001600060078111156129ff57fe5b81526000602082018190526040820181905260609091015290565b828054600181600116156101000203166002900490600052602060002090601f016020900481019282601f10612a5b57805160ff1916838001178555612a88565b82800160010185558215612a88579182015b82811115612a88578251825591602001919060010190612a6d565b50612a94929150612a98565b5090565b61185191905b80821115612a945760008155600101612a9e56fe43616c6c6572206973206e6f742061206661726d6572000000000000000000007665726966696573207468652043616c6c657200000000000000000000000000a165627a7a72305820a8a0922f021571f45d231f53683b0210feccd6173d5012a66075cca642b0c3e70029",
  "source": "pragma solidity ^0.5.0;\r\n\r\nimport \"../coffeecore/Ownable.sol\";\r\nimport \"../coffeeaccesscontrol/FarmerRole.sol\";\r\nimport \"../coffeeaccesscontrol/DistributorRole.sol\";\r\nimport \"../coffeeaccesscontrol/RetailerRole.sol\";\r\nimport \"../coffeeaccesscontrol/ConsumerRole.sol\";\r\n\r\n// Define a contract 'Supplychain'\r\ncontract SupplyChain is Ownable, FarmerRole, DistributorRole, RetailerRole, ConsumerRole {\r\n\r\n  // Define a variable called 'upc' for Universal Product Code (UPC)\r\n  uint  upc;\r\n\r\n  // Define a variable called 'sku' for Stock Keeping Unit (SKU)\r\n  uint  sku;\r\n\r\n  // Define a public mapping 'items' that maps the UPC to an Item.\r\n  mapping (uint => Item) items;\r\n\r\n  // Define a public mapping 'itemsHistory' that maps the UPC to an array of TxHash,\r\n  // that track its journey through the supply chain -- to be sent from DApp.\r\n  mapping (uint => string[]) itemsHistory;\r\n  // Define enum 'State' with the following values:\r\n  enum State\r\n  {\r\n    Harvested,  // 0\r\n    Processed,  // 1\r\n    Packed,     // 2\r\n    ForSale,    // 3\r\n    Sold,       // 4\r\n    Shipped,    // 5\r\n    Received,   // 6\r\n    Purchased   // 7\r\n    }\r\n\r\n  State constant defaultState = State.Harvested;\r\n\r\n  // Define a struct 'Item' with the following fields:\r\n  struct Item {\r\n    uint    sku;  // Stock Keeping Unit (SKU)\r\n    uint    upc; // Universal Product Code (UPC), generated by the Farmer, goes on the package, can be verified by the Consumer\r\n    address ownerID;  // Metamask-Ethereum address of the current owner as the product moves through 8 stages\r\n    address payable originFarmerID; // Metamask-Ethereum address of the Farmer\r\n    string originFarmName; // Farmer Name\r\n    string originFarmInformation;  // Farmer Information\r\n    string originFarmLatitude; // Farm Latitude\r\n    string originFarmLongitude;  // Farm Longitude\r\n    uint    productID;  // Product ID potentially a combination of upc + sku\r\n    string productNotes; // Product Notes\r\n    uint    productPrice; // Product Price\r\n    State   itemState;  // Product State as represented in the enum above\r\n    address distributorID;  // Metamask-Ethereum address of the Distributor\r\n    address retailerID; // Metamask-Ethereum address of the Retailer\r\n    address payable consumerID; // Metamask-Ethereum address of the Consumer\r\n  }\r\n\r\n  // Define 8 events with the same 8 state values and accept 'upc' as input argument\r\n  event Harvested(uint upc);\r\n  event Processed(uint upc);\r\n  event Packed(uint upc);\r\n  event ForSale(uint upc);\r\n  event Sold(uint upc);\r\n  event Shipped(uint upc);\r\n  event Received(uint upc);\r\n  event Purchased(uint upc);\r\n\r\n  // Define a modifer that verifies the Caller\r\n  modifier verifyCaller (address _address) {\r\n    require(msg.sender == _address, \"verifies the Caller\");\r\n    _;\r\n  }\r\n\r\n  // Define a modifier that checks if the paid amount is sufficient to cover the price\r\n  modifier paidEnough(uint _price) {\r\n    require(msg.value >= _price, \"Paid amount is not sufficient\");\r\n    _;\r\n  }\r\n  // Define a modifier that checks the price and refunds the remaining balance\r\n  modifier checkValue(uint _upc) {\r\n    _;\r\n    uint _price = items[_upc].productPrice;\r\n    uint amountToReturn = msg.value - _price;\r\n    items[_upc].consumerID.transfer(amountToReturn);\r\n  }\r\n\r\n  // Define a modifier that checks if an item.state of a upc is Harvested\r\n  modifier harvested(uint _upc) {\r\n    require(items[_upc].itemState == State.Harvested, \"is not Harvested\");\r\n    _;\r\n  }\r\n\r\n  // Define a modifier that checks if an item.state of a upc is Processed\r\n  modifier processed(uint _upc) {\r\n    require(items[_upc].itemState == State.Processed, \"Is not Processed\");\r\n    _;\r\n  }\r\n  // Define a modifier that checks if an item.state of a upc is Packed\r\n  modifier packed(uint _upc) {\r\n    require(items[_upc].itemState == State.Packed, \"is not Packed\");\r\n    _;\r\n  }\r\n\r\n  // Define a modifier that checks if an item.state of a upc is ForSale\r\n  modifier forSale(uint _upc) {\r\n    require(items[_upc].itemState == State.ForSale, \"is not ForSale\");\r\n    _;\r\n  }\r\n\r\n  // Define a modifier that checks if an item.state of a upc is Sold\r\n  modifier sold(uint _upc) {\r\n    require(items[_upc].itemState == State.Sold, \"is not Sold\");\r\n    _;\r\n  }\r\n  // Define a modifier that checks if an item.state of a upc is Shipped\r\n  modifier shipped(uint _upc) {\r\n    require(items[_upc].itemState == State.Shipped, \"is not Shipped\");\r\n    _;\r\n  }\r\n\r\n  // Define a modifier that checks if an item.state of a upc is Received\r\n  modifier received(uint _upc) {\r\n    require(items[_upc].itemState == State.Received, \"Is not Received\");\r\n    _;\r\n  }\r\n\r\n  // Define a modifier that checks if an item.state of a upc is Purchased\r\n  modifier purchased(uint _upc) {\r\n    require(items[_upc].itemState == State.Purchased, \"Is not Purchased\");\r\n    _;\r\n  }\r\n\r\n  // and set 'sku' to 1\r\n  // and set 'upc' to 1\r\n  constructor() public {\r\n    sku = 1;\r\n    upc = 1;\r\n  }\r\n\r\n  // Define a function 'kill' if required\r\n  //function kill() public {\r\n  //  if (msg.sender == owner()) {\r\n  //    selfdestruct(owner());\r\n  //  }\r\n  //}\r\n\r\n  // Define a function 'harvestItem' that allows a farmer to mark an item 'Harvested'\r\n  function harvestItem(\r\n    uint _upc,\r\n    address payable _originFarmerID,\r\n    string memory _originFarmName,\r\n    string memory _originFarmInformation,\r\n    string memory _originFarmLatitude,\r\n    string memory _originFarmLongitude,\r\n    string memory _productNotes)\r\n    public\r\n    onlyFarmer\r\n  {\r\n    // Add the new item as part of Harvest\r\n    Item memory item = Item({\r\n        sku: sku,\r\n        upc: _upc,\r\n        ownerID: _originFarmerID,\r\n        originFarmerID: _originFarmerID,\r\n        originFarmName: _originFarmName,\r\n        originFarmInformation: _originFarmInformation,\r\n        originFarmLatitude: _originFarmLatitude,\r\n        originFarmLongitude: _originFarmLongitude,\r\n        productID: sku+_upc,\r\n        productNotes: _productNotes,\r\n        productPrice: 0,\r\n        itemState: defaultState,\r\n        distributorID: address(0),\r\n        retailerID: address(0),\r\n        consumerID: address(0)\r\n    });\r\n    \r\n    items[_upc] = item;\r\n    // Increment sku\r\n    sku = sku + 1;\r\n    // Emit the appropriate event\r\n    emit Harvested(_upc);\r\n  }\r\n\r\n  // Define a function 'processtItem' that allows a farmer to mark an item 'Processed'\r\n  function processItem(uint _upc) public\r\n  // Call modifier to check if upc has passed previous supply chain stage\r\n  harvested(_upc)\r\n  // Call modifier to verify caller of this function\r\n  verifyCaller(items[_upc].originFarmerID)\r\n\r\n  onlyFarmer\r\n  {\r\n    // Update the appropriate fields\r\n    items[_upc].itemState = State.Processed;\r\n    // Emit the appropriate event\r\n    emit Processed(_upc);\r\n  }\r\n\r\n  // Define a function 'packItem' that allows a farmer to mark an item 'Packed'\r\n  function packItem(uint _upc) public\r\n  // Call modifier to check if upc has passed previous supply chain stage\r\n  processed(_upc)\r\n  // Call modifier to verify caller of this function\r\n  verifyCaller(items[_upc].originFarmerID)\r\n\r\n  onlyFarmer\r\n  {\r\n    // Update the appropriate fields\r\n    items[_upc].itemState = State.Packed;\r\n    // Emit the appropriate event\r\n    emit Packed(_upc);\r\n  }\r\n\r\n  // Define a function 'sellItem' that allows a farmer to mark an item 'ForSale'\r\n  function sellItem(uint _upc, uint _price) public\r\n  // Call modifier to check if upc has passed previous supply chain stage\r\n  packed(_upc)\r\n  // Call modifier to verify caller of this function\r\n  verifyCaller(items[_upc].originFarmerID)\r\n\r\n  onlyFarmer\r\n  {\r\n    // Update the appropriate fields\r\n    items[_upc].productPrice = _price;\r\n    items[_upc].itemState = State.ForSale;\r\n    // Emit the appropriate event\r\n    emit ForSale(_upc);\r\n  }\r\n\r\n  // Define a function 'buyItem' that allows the disributor to mark an item 'Sold'\r\n  // Use the above defined modifiers to check if the item is available for sale, if the buyer has paid enough\r\n  // and any excess ether sent is refunded back to the buyer\r\n  function buyItem(uint _upc) public payable\r\n    // Call modifier to check if upc has passed previous supply chain stage\r\n    forSale(_upc)\r\n    // Call modifer to check if buyer has paid enough\r\n    paidEnough(items[_upc].productPrice)\r\n    // Call modifer to send any excess ether back to buyer\r\n    checkValue(_upc)\r\n\r\n    onlyDistributor\r\n    {\r\n    // Update the appropriate fields - ownerID, distributorID, itemState\r\n    items[_upc].ownerID = msg.sender;\r\n    items[_upc].distributorID = msg.sender;\r\n    items[_upc].itemState = State.Sold;\r\n    // Transfer money to farmer\r\n    items[_upc].originFarmerID.transfer(items[_upc].productPrice);\r\n\r\n    // emit the appropriate event\r\n    emit Sold(_upc);\r\n  }\r\n\r\n  // Define a function 'shipItem' that allows the distributor to mark an item 'Shipped'\r\n  // Use the above modifers to check if the item is sold\r\n  function shipItem(uint _upc) public\r\n    // Call modifier to check if upc has passed previous supply chain stage\r\n    sold(_upc)\r\n    // Call modifier to verify caller of this function\r\n    verifyCaller(items[_upc].distributorID)\r\n\r\n    onlyDistributor\r\n    {\r\n    // Update the appropriate fields\r\n    items[_upc].itemState = State.Shipped;\r\n    // Emit the appropriate event\r\n    emit Shipped(_upc);\r\n  }\r\n\r\n  // Define a function 'receiveItem' that allows the retailer to mark an item 'Received'\r\n  // Use the above modifiers to check if the item is shipped\r\n  function receiveItem(uint _upc) public\r\n    // Call modifier to check if upc has passed previous supply chain stage\r\n    shipped(_upc)\r\n    // Access Control List enforced by calling Smart Contract / DApp\r\n    onlyRetailer\r\n    {\r\n    // Update the appropriate fields - ownerID, retailerID, itemState\r\n    items[_upc].ownerID = msg.sender;\r\n    items[_upc].retailerID = msg.sender;\r\n    items[_upc].itemState = State.Received;\r\n    // Emit the appropriate event\r\n    emit Received(_upc);\r\n  }\r\n\r\n  // Define a function 'purchaseItem' that allows the consumer to mark an item 'Purchased'\r\n  // Use the above modifiers to check if the item is received\r\n  function purchaseItem(uint _upc) public\r\n    // Call modifier to check if upc has passed previous supply chain stage\r\n    received(_upc)\r\n    // Access Control List enforced by calling Smart Contract / DApp\r\n    onlyConsumer\r\n    {\r\n    // Update the appropriate fields - ownerID, consumerID, itemState\r\n    items[_upc].ownerID = msg.sender;\r\n    items[_upc].consumerID = msg.sender;\r\n    items[_upc].itemState = State.Purchased;\r\n    // Emit the appropriate event\r\n    emit Purchased(_upc);\r\n  }\r\n\r\n  // Define a function 'fetchItemBufferOne' that fetches the data\r\n  function fetchItemBufferOne1(uint _upc) public view returns\r\n  (\r\n    uint    itemSKU,\r\n    uint    itemUPC,\r\n    address ownerID,\r\n    address originFarmerID,\r\n    string memory originFarmName,\r\n    string memory originFarmInformation,\r\n    string memory originFarmLatitude,\r\n    string memory originFarmLongitude\r\n  )\r\n  {\r\n    // Assign values to the 8 parameters\r\n    itemSKU = items[_upc].sku;\r\n    itemUPC = items[_upc].upc;\r\n    ownerID = items[_upc].ownerID;\r\n    originFarmerID = items[_upc].originFarmerID;\r\n    originFarmName = items[_upc].originFarmName;\r\n    originFarmInformation = items[_upc].originFarmInformation;\r\n    originFarmLatitude = items[_upc].originFarmLatitude;\r\n    originFarmLongitude = items[_upc].originFarmLongitude;\r\n  return\r\n  (\r\n  itemSKU,\r\n  itemUPC,\r\n  ownerID,\r\n  originFarmerID,\r\n  originFarmName,\r\n  originFarmInformation,\r\n  originFarmLatitude,\r\n  originFarmLongitude\r\n  );\r\n  }\r\n\r\n    function fetchItemBufferOne(uint _upc) public view returns\r\n    (\r\n      uint    itemSKU,\r\n      uint    itemUPC,\r\n      address ownerID,\r\n      address originFarmerID,\r\n      string memory originFarmName,\r\n      string memory originFarmInformation,\r\n      string memory originFarmLatitude,\r\n      string memory originFarmLongitude\r\n    )\r\n  {\r\n    Item memory item = items[_upc];\r\n  return\r\n  (\r\n  item.sku,\r\n  item.upc,\r\n  item.ownerID,\r\n  item.originFarmerID,\r\n  item.originFarmName,\r\n  item.originFarmInformation,\r\n  item.originFarmLatitude,\r\n  item.originFarmLongitude\r\n  );\r\n  }\r\n\r\n  // Define a function 'fetchItemBufferTwo' that fetches the data\r\n  function fetchItemBufferTwo(uint _upc) public view returns\r\n  (\r\n  uint    itemSKU,\r\n  uint    itemUPC,\r\n  uint    productID,\r\n  string memory productNotes,\r\n  uint    productPrice,\r\n  uint    itemState,\r\n  address distributorID,\r\n  address retailerID,\r\n  address consumerID\r\n  )\r\n  {\r\n  // Assign values to the 9 parameters\r\n  itemSKU = items[_upc].sku;\r\n  itemUPC = items[_upc].upc;\r\n  productID = items[_upc].productID;\r\n  productNotes = items[_upc].productNotes;\r\n  productPrice = items[_upc].productPrice;\r\n  itemState = uint256(items[_upc].itemState);\r\n  distributorID = items[_upc].distributorID;\r\n  retailerID = items[_upc].retailerID;\r\n  consumerID = items[_upc].consumerID;\r\n  return\r\n  (\r\n  itemSKU,\r\n  itemUPC,\r\n  productID,\r\n  productNotes,\r\n  productPrice,\r\n  itemState,\r\n  distributorID,\r\n  retailerID,\r\n  consumerID\r\n  );\r\n  }\r\n}\r\n",
  "sourcePath": "C:/Users/gilbe/OneDrive/Documents/Project/Blockchain-DApp-for-tracking-items-through-Supply-Chain/contracts/coffeebase/SupplyChain.sol",
  "compiler": {
    "name": "solc",
    "version": "0.5.0+commit.1d4f565a.Emscripten.clang"
  },
  "schemaVersion": "3.0.1",
  "updatedAt": "2023-05-24T19:10:36.480Z",
  "devdoc": {
    "methods": {}
  },
  "userdoc": {
    "methods": {
      "isOwner()": {
        "notice": "Check if the calling address is the owner of the contract"
      },
      "owner()": {
        "notice": "Look up the address of the owner"
      },
      "renounceOwnership()": {
        "notice": "Define a function to renounce ownerhip"
      },
      "transferOwnership(address)": {
        "notice": "Define a public function to transfer ownership"
      }
    }
  }
}